{
  "_format": "hh-sol-artifact-1",
  "contractName": "HLConstants",
  "sourceName": "lib/hyper-evm-lib/src/common/HLConstants.sol",
  "abi": [
    {
      "inputs": [],
      "name": "LIMIT_ORDER_TIF_ALO",
      "outputs": [
        {
          "internalType": "uint8",
          "name": "",
          "type": "uint8"
        }
      ],
      "stateMutability": "view",
      "type": "function"
    },
    {
      "inputs": [],
      "name": "LIMIT_ORDER_TIF_GTC",
      "outputs": [
        {
          "internalType": "uint8",
          "name": "",
          "type": "uint8"
        }
      ],
      "stateMutability": "view",
      "type": "function"
    },
    {
      "inputs": [],
      "name": "LIMIT_ORDER_TIF_IOC",
      "outputs": [
        {
          "internalType": "uint8",
          "name": "",
          "type": "uint8"
        }
      ],
      "stateMutability": "view",
      "type": "function"
    }
  ],
  "bytecode": "0x60ad610039600b82828239805160001a60731461002c57634e487b7160e01b600052600060045260246000fd5b30600052607381538281f3fe730000000000000000000000000000000000000000301460806040526004361060475760003560e01c80630eca611f14604c57806337041c8d146069578063fcd2a5f5146070575b600080fd5b6053600381565b60405160ff909116815260200160405180910390f35b6053600181565b605360028156fea2646970667358221220c88d06b2f2c43b89121aeb2e95594122df040a9c18a97c0e5b97b6c2ded5def564736f6c63430008130033",
  "linkReferences": {},
  "deployedLinkReferences": {}
}