{
  "_format": "hh-sol-artifact-1",
  "contractName": "TestableHLEALM",
  "sourceName": "src/mocks/TestableHLEALM.sol",
  "abi": [
    {
      "inputs": [
        {
          "internalType": "address",
          "name": "_pool",
          "type": "address"
        },
        {
          "internalType": "uint64",
          "name": "_token0Index",
          "type": "uint64"
        },
        {
          "internalType": "uint64",
          "name": "_token1Index",
          "type": "uint64"
        },
        {
          "internalType": "address",
          "name": "_feeRecipient",
          "type": "address"
        },
        {
          "internalType": "address",
          "name": "_owner",
          "type": "address"
        }
      ],
      "stateMutability": "nonpayable",
      "type": "constructor"
    },
    {
      "inputs": [],
      "name": "HLEALM__InsufficientLiquidity",
      "type": "error"
    },
    {
      "inputs": [],
      "name": "HLEALM__InvalidSpreadConfig",
      "type": "error"
    },
    {
      "inputs": [],
      "name": "HLEALM__InvalidTokenPair",
      "type": "error"
    },
    {
      "inputs": [],
      "name": "HLEALM__NotInitialized",
      "type": "error"
    },
    {
      "inputs": [],
      "name": "HLEALM__OnlyPool",
      "type": "error"
    },
    {
      "inputs": [],
      "name": "HLEALM__Paused",
      "type": "error"
    },
    {
      "inputs": [],
      "name": "HLEALM__PriceDeviationTooHigh",
      "type": "error"
    },
    {
      "inputs": [],
      "name": "HLEALM__SlippageExceeded",
      "type": "error"
    },
    {
      "inputs": [],
      "name": "HLEALM__VolatilityTooHigh",
      "type": "error"
    },
    {
      "inputs": [],
      "name": "HLEALM__ZeroAddress",
      "type": "error"
    },
    {
      "inputs": [],
      "name": "TwoSpeedEWMA__InvalidAlpha",
      "type": "error"
    },
    {
      "inputs": [],
      "name": "TwoSpeedEWMA__NotInitialized",
      "type": "error"
    },
    {
      "inputs": [],
      "name": "TwoSpeedEWMA__ZeroPrice",
      "type": "error"
    },
    {
      "anonymous": false,
      "inputs": [
        {
          "indexed": true,
          "internalType": "address",
          "name": "recipient",
          "type": "address"
        },
        {
          "indexed": false,
          "internalType": "uint256",
          "name": "amount0",
          "type": "uint256"
        },
        {
          "indexed": false,
          "internalType": "uint256",
          "name": "amount1",
          "type": "uint256"
        }
      ],
      "name": "FeesCollected",
      "type": "event"
    },
    {
      "anonymous": false,
      "inputs": [
        {
          "indexed": true,
          "internalType": "address",
          "name": "sender",
          "type": "address"
        },
        {
          "indexed": false,
          "internalType": "uint256",
          "name": "amount0",
          "type": "uint256"
        },
        {
          "indexed": false,
          "internalType": "uint256",
          "name": "amount1",
          "type": "uint256"
        }
      ],
      "name": "LiquidityDeposited",
      "type": "event"
    },
    {
      "anonymous": false,
      "inputs": [
        {
          "indexed": true,
          "internalType": "address",
          "name": "recipient",
          "type": "address"
        },
        {
          "indexed": false,
          "internalType": "uint256",
          "name": "amount0",
          "type": "uint256"
        },
        {
          "indexed": false,
          "internalType": "uint256",
          "name": "amount1",
          "type": "uint256"
        }
      ],
      "name": "LiquidityWithdrawn",
      "type": "event"
    },
    {
      "anonymous": false,
      "inputs": [
        {
          "indexed": true,
          "internalType": "address",
          "name": "previousOwner",
          "type": "address"
        },
        {
          "indexed": true,
          "internalType": "address",
          "name": "newOwner",
          "type": "address"
        }
      ],
      "name": "OwnershipTransferStarted",
      "type": "event"
    },
    {
      "anonymous": false,
      "inputs": [
        {
          "indexed": true,
          "internalType": "address",
          "name": "previousOwner",
          "type": "address"
        },
        {
          "indexed": true,
          "internalType": "address",
          "name": "newOwner",
          "type": "address"
        }
      ],
      "name": "OwnershipTransferred",
      "type": "event"
    },
    {
      "anonymous": false,
      "inputs": [
        {
          "indexed": false,
          "internalType": "bool",
          "name": "isPaused",
          "type": "bool"
        }
      ],
      "name": "Paused",
      "type": "event"
    },
    {
      "anonymous": false,
      "inputs": [
        {
          "indexed": false,
          "internalType": "uint256",
          "name": "kVol",
          "type": "uint256"
        },
        {
          "indexed": false,
          "internalType": "uint256",
          "name": "kImpact",
          "type": "uint256"
        }
      ],
      "name": "SpreadConfigUpdated",
      "type": "event"
    },
    {
      "anonymous": false,
      "inputs": [
        {
          "indexed": true,
          "internalType": "address",
          "name": "recipient",
          "type": "address"
        },
        {
          "indexed": false,
          "internalType": "uint256",
          "name": "amount0",
          "type": "uint256"
        },
        {
          "indexed": false,
          "internalType": "uint256",
          "name": "amount1",
          "type": "uint256"
        }
      ],
      "name": "SurplusCollected",
      "type": "event"
    },
    {
      "anonymous": false,
      "inputs": [
        {
          "indexed": true,
          "internalType": "address",
          "name": "sender",
          "type": "address"
        },
        {
          "indexed": false,
          "internalType": "bool",
          "name": "isBuy",
          "type": "bool"
        },
        {
          "indexed": false,
          "internalType": "uint256",
          "name": "amountIn",
          "type": "uint256"
        },
        {
          "indexed": false,
          "internalType": "uint256",
          "name": "amountOut",
          "type": "uint256"
        },
        {
          "indexed": false,
          "internalType": "uint256",
          "name": "oraclePrice",
          "type": "uint256"
        },
        {
          "indexed": false,
          "internalType": "uint256",
          "name": "effectivePrice",
          "type": "uint256"
        },
        {
          "indexed": false,
          "internalType": "uint256",
          "name": "spreadUsed",
          "type": "uint256"
        }
      ],
      "name": "SwapExecuted",
      "type": "event"
    },
    {
      "anonymous": false,
      "inputs": [
        {
          "indexed": false,
          "internalType": "uint256",
          "name": "fastEWMA",
          "type": "uint256"
        },
        {
          "indexed": false,
          "internalType": "uint256",
          "name": "slowEWMA",
          "type": "uint256"
        },
        {
          "indexed": false,
          "internalType": "uint256",
          "name": "deviationBps",
          "type": "uint256"
        },
        {
          "indexed": false,
          "internalType": "uint256",
          "name": "thresholdBps",
          "type": "uint256"
        }
      ],
      "name": "VolatilityGated",
      "type": "event"
    },
    {
      "anonymous": false,
      "inputs": [
        {
          "indexed": false,
          "internalType": "uint256",
          "name": "volatilityThresholdBps",
          "type": "uint256"
        }
      ],
      "name": "VolatilityThresholdUpdated",
      "type": "event"
    },
    {
      "anonymous": false,
      "inputs": [
        {
          "indexed": true,
          "internalType": "address",
          "name": "optimizer",
          "type": "address"
        }
      ],
      "name": "YieldOptimizerSet",
      "type": "event"
    },
    {
      "inputs": [],
      "name": "acceptOwnership",
      "outputs": [],
      "stateMutability": "nonpayable",
      "type": "function"
    },
    {
      "inputs": [],
      "name": "accumulatedFees0",
      "outputs": [
        {
          "internalType": "uint256",
          "name": "",
          "type": "uint256"
        }
      ],
      "stateMutability": "view",
      "type": "function"
    },
    {
      "inputs": [],
      "name": "accumulatedFees1",
      "outputs": [
        {
          "internalType": "uint256",
          "name": "",
          "type": "uint256"
        }
      ],
      "stateMutability": "view",
      "type": "function"
    },
    {
      "inputs": [
        {
          "internalType": "uint256",
          "name": "amountIn",
          "type": "uint256"
        },
        {
          "internalType": "uint256",
          "name": "reserveIn",
          "type": "uint256"
        }
      ],
      "name": "calculateSpreadDetails",
      "outputs": [
        {
          "internalType": "uint256",
          "name": "volSpread",
          "type": "uint256"
        },
        {
          "internalType": "uint256",
          "name": "impactSpread",
          "type": "uint256"
        },
        {
          "internalType": "uint256",
          "name": "totalSpread",
          "type": "uint256"
        }
      ],
      "stateMutability": "view",
      "type": "function"
    },
    {
      "inputs": [],
      "name": "canTrade",
      "outputs": [
        {
          "internalType": "bool",
          "name": "",
          "type": "bool"
        }
      ],
      "stateMutability": "view",
      "type": "function"
    },
    {
      "inputs": [],
      "name": "collectFees",
      "outputs": [],
      "stateMutability": "nonpayable",
      "type": "function"
    },
    {
      "inputs": [],
      "name": "collectSurplus",
      "outputs": [],
      "stateMutability": "nonpayable",
      "type": "function"
    },
    {
      "inputs": [
        {
          "internalType": "uint256",
          "name": "amount0",
          "type": "uint256"
        },
        {
          "internalType": "uint256",
          "name": "amount1",
          "type": "uint256"
        },
        {
          "internalType": "address",
          "name": "sender",
          "type": "address"
        }
      ],
      "name": "depositLiquidity",
      "outputs": [
        {
          "internalType": "uint256",
          "name": "amount0Deposited",
          "type": "uint256"
        },
        {
          "internalType": "uint256",
          "name": "amount1Deposited",
          "type": "uint256"
        }
      ],
      "stateMutability": "nonpayable",
      "type": "function"
    },
    {
      "inputs": [],
      "name": "feeRecipient",
      "outputs": [
        {
          "internalType": "address",
          "name": "",
          "type": "address"
        }
      ],
      "stateMutability": "view",
      "type": "function"
    },
    {
      "inputs": [
        {
          "internalType": "uint256",
          "name": "initialPrice",
          "type": "uint256"
        }
      ],
      "name": "forceInitialize",
      "outputs": [],
      "stateMutability": "nonpayable",
      "type": "function"
    },
    {
      "inputs": [
        {
          "internalType": "uint256",
          "name": "fastVariance",
          "type": "uint256"
        },
        {
          "internalType": "uint256",
          "name": "slowVariance",
          "type": "uint256"
        }
      ],
      "name": "forceSetVariance",
      "outputs": [],
      "stateMutability": "nonpayable",
      "type": "function"
    },
    {
      "inputs": [],
      "name": "getAccumulatedFees",
      "outputs": [
        {
          "internalType": "uint256",
          "name": "fees0",
          "type": "uint256"
        },
        {
          "internalType": "uint256",
          "name": "fees1",
          "type": "uint256"
        }
      ],
      "stateMutability": "view",
      "type": "function"
    },
    {
      "inputs": [
        {
          "components": [
            {
              "internalType": "bool",
              "name": "isZeroToOne",
              "type": "bool"
            },
            {
              "internalType": "uint256",
              "name": "amountInMinusFee",
              "type": "uint256"
            },
            {
              "internalType": "uint256",
              "name": "feeInBips",
              "type": "uint256"
            },
            {
              "internalType": "address",
              "name": "sender",
              "type": "address"
            },
            {
              "internalType": "address",
              "name": "recipient",
              "type": "address"
            },
            {
              "internalType": "address",
              "name": "tokenOutSwap",
              "type": "address"
            }
          ],
          "internalType": "struct ALMLiquidityQuoteInput",
          "name": "_almLiquidityQuoteInput",
          "type": "tuple"
        },
        {
          "internalType": "bytes",
          "name": "",
          "type": "bytes"
        },
        {
          "internalType": "bytes",
          "name": "",
          "type": "bytes"
        }
      ],
      "name": "getLiquidityQuote",
      "outputs": [
        {
          "components": [
            {
              "internalType": "bool",
              "name": "isCallbackOnSwap",
              "type": "bool"
            },
            {
              "internalType": "uint256",
              "name": "amountOut",
              "type": "uint256"
            },
            {
              "internalType": "uint256",
              "name": "amountInFilled",
              "type": "uint256"
            }
          ],
          "internalType": "struct ALMLiquidityQuote",
          "name": "quote",
          "type": "tuple"
        }
      ],
      "stateMutability": "nonpayable",
      "type": "function"
    },
    {
      "inputs": [],
      "name": "getMockMidPrice",
      "outputs": [
        {
          "internalType": "uint256",
          "name": "",
          "type": "uint256"
        }
      ],
      "stateMutability": "view",
      "type": "function"
    },
    {
      "inputs": [],
      "name": "getOracleMidPrice",
      "outputs": [
        {
          "internalType": "uint256",
          "name": "price",
          "type": "uint256"
        }
      ],
      "stateMutability": "view",
      "type": "function"
    },
    {
      "inputs": [
        {
          "internalType": "address",
          "name": "tokenIn",
          "type": "address"
        },
        {
          "internalType": "address",
          "name": "tokenOut",
          "type": "address"
        },
        {
          "internalType": "uint256",
          "name": "amountIn",
          "type": "uint256"
        }
      ],
      "name": "getQuote",
      "outputs": [
        {
          "internalType": "uint256",
          "name": "amountOut",
          "type": "uint256"
        }
      ],
      "stateMutability": "view",
      "type": "function"
    },
    {
      "inputs": [
        {
          "internalType": "uint256",
          "name": "amountIn",
          "type": "uint256"
        },
        {
          "internalType": "address",
          "name": "tokenIn",
          "type": "address"
        }
      ],
      "name": "getSpread",
      "outputs": [
        {
          "internalType": "uint256",
          "name": "volSpread",
          "type": "uint256"
        },
        {
          "internalType": "uint256",
          "name": "impactSpread",
          "type": "uint256"
        },
        {
          "internalType": "uint256",
          "name": "totalSpread",
          "type": "uint256"
        }
      ],
      "stateMutability": "view",
      "type": "function"
    },
    {
      "inputs": [],
      "name": "getSpreadConfig",
      "outputs": [
        {
          "internalType": "uint256",
          "name": "_kVol",
          "type": "uint256"
        },
        {
          "internalType": "uint256",
          "name": "_kImpact",
          "type": "uint256"
        }
      ],
      "stateMutability": "view",
      "type": "function"
    },
    {
      "inputs": [],
      "name": "getTotalLiquidity",
      "outputs": [
        {
          "internalType": "uint256",
          "name": "liquidity",
          "type": "uint256"
        }
      ],
      "stateMutability": "view",
      "type": "function"
    },
    {
      "inputs": [],
      "name": "getVariance",
      "outputs": [
        {
          "internalType": "uint256",
          "name": "fastVar",
          "type": "uint256"
        },
        {
          "internalType": "uint256",
          "name": "slowVar",
          "type": "uint256"
        },
        {
          "internalType": "uint256",
          "name": "maxVar",
          "type": "uint256"
        }
      ],
      "stateMutability": "view",
      "type": "function"
    },
    {
      "inputs": [],
      "name": "getVolatility",
      "outputs": [
        {
          "components": [
            {
              "internalType": "uint256",
              "name": "fastEWMA",
              "type": "uint256"
            },
            {
              "internalType": "uint256",
              "name": "slowEWMA",
              "type": "uint256"
            },
            {
              "internalType": "uint256",
              "name": "fastVar",
              "type": "uint256"
            },
            {
              "internalType": "uint256",
              "name": "slowVar",
              "type": "uint256"
            },
            {
              "internalType": "uint256",
              "name": "deviationBps",
              "type": "uint256"
            },
            {
              "internalType": "bool",
              "name": "isVolatile",
              "type": "bool"
            }
          ],
          "internalType": "struct TwoSpeedEWMA.VolatilityReading",
          "name": "reading",
          "type": "tuple"
        }
      ],
      "stateMutability": "view",
      "type": "function"
    },
    {
      "inputs": [],
      "name": "initialize",
      "outputs": [],
      "stateMutability": "nonpayable",
      "type": "function"
    },
    {
      "inputs": [
        {
          "internalType": "uint256",
          "name": "fastAlpha",
          "type": "uint256"
        },
        {
          "internalType": "uint256",
          "name": "slowAlpha",
          "type": "uint256"
        }
      ],
      "name": "initializeWithAlphas",
      "outputs": [],
      "stateMutability": "nonpayable",
      "type": "function"
    },
    {
      "inputs": [],
      "name": "kImpact",
      "outputs": [
        {
          "internalType": "uint256",
          "name": "",
          "type": "uint256"
        }
      ],
      "stateMutability": "view",
      "type": "function"
    },
    {
      "inputs": [],
      "name": "kVol",
      "outputs": [
        {
          "internalType": "uint256",
          "name": "",
          "type": "uint256"
        }
      ],
      "stateMutability": "view",
      "type": "function"
    },
    {
      "inputs": [
        {
          "internalType": "uint256",
          "name": "_amount0",
          "type": "uint256"
        },
        {
          "internalType": "uint256",
          "name": "_amount1",
          "type": "uint256"
        },
        {
          "internalType": "bytes",
          "name": "",
          "type": "bytes"
        }
      ],
      "name": "onDepositLiquidityCallback",
      "outputs": [],
      "stateMutability": "nonpayable",
      "type": "function"
    },
    {
      "inputs": [
        {
          "internalType": "bool",
          "name": "",
          "type": "bool"
        },
        {
          "internalType": "uint256",
          "name": "",
          "type": "uint256"
        },
        {
          "internalType": "uint256",
          "name": "",
          "type": "uint256"
        }
      ],
      "name": "onSwapCallback",
      "outputs": [],
      "stateMutability": "nonpayable",
      "type": "function"
    },
    {
      "inputs": [],
      "name": "owner",
      "outputs": [
        {
          "internalType": "address",
          "name": "",
          "type": "address"
        }
      ],
      "stateMutability": "view",
      "type": "function"
    },
    {
      "inputs": [],
      "name": "paused",
      "outputs": [
        {
          "internalType": "bool",
          "name": "",
          "type": "bool"
        }
      ],
      "stateMutability": "view",
      "type": "function"
    },
    {
      "inputs": [],
      "name": "pendingOwner",
      "outputs": [
        {
          "internalType": "address",
          "name": "",
          "type": "address"
        }
      ],
      "stateMutability": "view",
      "type": "function"
    },
    {
      "inputs": [],
      "name": "pool",
      "outputs": [
        {
          "internalType": "contract ISovereignPool",
          "name": "",
          "type": "address"
        }
      ],
      "stateMutability": "view",
      "type": "function"
    },
    {
      "inputs": [
        {
          "internalType": "address",
          "name": "tokenIn",
          "type": "address"
        },
        {
          "internalType": "address",
          "name": "tokenOut",
          "type": "address"
        },
        {
          "internalType": "uint256",
          "name": "amountIn",
          "type": "uint256"
        }
      ],
      "name": "previewSwap",
      "outputs": [
        {
          "internalType": "uint256",
          "name": "amountOut",
          "type": "uint256"
        },
        {
          "internalType": "uint256",
          "name": "spreadFee",
          "type": "uint256"
        },
        {
          "internalType": "bool",
          "name": "canExecute",
          "type": "bool"
        }
      ],
      "stateMutability": "view",
      "type": "function"
    },
    {
      "inputs": [],
      "name": "priceEWMA",
      "outputs": [
        {
          "internalType": "uint256",
          "name": "fastEWMA",
          "type": "uint256"
        },
        {
          "internalType": "uint256",
          "name": "slowEWMA",
          "type": "uint256"
        },
        {
          "internalType": "uint256",
          "name": "fastVar",
          "type": "uint256"
        },
        {
          "internalType": "uint256",
          "name": "slowVar",
          "type": "uint256"
        },
        {
          "internalType": "uint256",
          "name": "fastAlpha",
          "type": "uint256"
        },
        {
          "internalType": "uint256",
          "name": "slowAlpha",
          "type": "uint256"
        },
        {
          "internalType": "uint64",
          "name": "lastUpdateTime",
          "type": "uint64"
        },
        {
          "internalType": "bool",
          "name": "initialized",
          "type": "bool"
        }
      ],
      "stateMutability": "view",
      "type": "function"
    },
    {
      "inputs": [],
      "name": "renounceOwnership",
      "outputs": [],
      "stateMutability": "nonpayable",
      "type": "function"
    },
    {
      "inputs": [
        {
          "internalType": "address",
          "name": "_recipient",
          "type": "address"
        }
      ],
      "name": "setFeeRecipient",
      "outputs": [],
      "stateMutability": "nonpayable",
      "type": "function"
    },
    {
      "inputs": [
        {
          "internalType": "uint256",
          "name": "midPrice",
          "type": "uint256"
        }
      ],
      "name": "setMockMidPrice",
      "outputs": [],
      "stateMutability": "nonpayable",
      "type": "function"
    },
    {
      "inputs": [
        {
          "internalType": "bool",
          "name": "_paused",
          "type": "bool"
        }
      ],
      "name": "setPaused",
      "outputs": [],
      "stateMutability": "nonpayable",
      "type": "function"
    },
    {
      "inputs": [
        {
          "internalType": "uint256",
          "name": "_kVol",
          "type": "uint256"
        },
        {
          "internalType": "uint256",
          "name": "_kImpact",
          "type": "uint256"
        }
      ],
      "name": "setSpreadConfig",
      "outputs": [],
      "stateMutability": "nonpayable",
      "type": "function"
    },
    {
      "inputs": [
        {
          "internalType": "uint64",
          "name": "_token0Index",
          "type": "uint64"
        },
        {
          "internalType": "uint64",
          "name": "_token1Index",
          "type": "uint64"
        }
      ],
      "name": "setTokenIndices",
      "outputs": [],
      "stateMutability": "nonpayable",
      "type": "function"
    },
    {
      "inputs": [
        {
          "internalType": "uint256",
          "name": "_volatilityThresholdBps",
          "type": "uint256"
        }
      ],
      "name": "setVolatilityThreshold",
      "outputs": [],
      "stateMutability": "nonpayable",
      "type": "function"
    },
    {
      "inputs": [
        {
          "internalType": "address",
          "name": "_optimizer",
          "type": "address"
        }
      ],
      "name": "setYieldOptimizer",
      "outputs": [],
      "stateMutability": "nonpayable",
      "type": "function"
    },
    {
      "inputs": [],
      "name": "surplusCaptured0",
      "outputs": [
        {
          "internalType": "uint256",
          "name": "",
          "type": "uint256"
        }
      ],
      "stateMutability": "view",
      "type": "function"
    },
    {
      "inputs": [],
      "name": "surplusCaptured1",
      "outputs": [
        {
          "internalType": "uint256",
          "name": "",
          "type": "uint256"
        }
      ],
      "stateMutability": "view",
      "type": "function"
    },
    {
      "inputs": [],
      "name": "token0",
      "outputs": [
        {
          "internalType": "address",
          "name": "",
          "type": "address"
        }
      ],
      "stateMutability": "view",
      "type": "function"
    },
    {
      "inputs": [],
      "name": "token0Index",
      "outputs": [
        {
          "internalType": "uint64",
          "name": "",
          "type": "uint64"
        }
      ],
      "stateMutability": "view",
      "type": "function"
    },
    {
      "inputs": [],
      "name": "token1",
      "outputs": [
        {
          "internalType": "address",
          "name": "",
          "type": "address"
        }
      ],
      "stateMutability": "view",
      "type": "function"
    },
    {
      "inputs": [],
      "name": "token1Index",
      "outputs": [
        {
          "internalType": "uint64",
          "name": "",
          "type": "uint64"
        }
      ],
      "stateMutability": "view",
      "type": "function"
    },
    {
      "inputs": [
        {
          "internalType": "address",
          "name": "newOwner",
          "type": "address"
        }
      ],
      "name": "transferOwnership",
      "outputs": [],
      "stateMutability": "nonpayable",
      "type": "function"
    },
    {
      "inputs": [],
      "name": "updateEWMA",
      "outputs": [],
      "stateMutability": "nonpayable",
      "type": "function"
    },
    {
      "inputs": [],
      "name": "volatilityThresholdBps",
      "outputs": [
        {
          "internalType": "uint256",
          "name": "",
          "type": "uint256"
        }
      ],
      "stateMutability": "view",
      "type": "function"
    },
    {
      "inputs": [
        {
          "internalType": "uint256",
          "name": "amount0",
          "type": "uint256"
        },
        {
          "internalType": "uint256",
          "name": "amount1",
          "type": "uint256"
        },
        {
          "internalType": "address",
          "name": "recipient",
          "type": "address"
        }
      ],
      "name": "withdrawLiquidity",
      "outputs": [],
      "stateMutability": "nonpayable",
      "type": "function"
    },
    {
      "inputs": [],
      "name": "yieldOptimizer",
      "outputs": [
        {
          "internalType": "address",
          "name": "",
          "type": "address"
        }
      ],
      "stateMutability": "view",
      "type": "function"
    }
  ],
  "bytecode": "0x60e0604052686c6b935b8bbd4000006014553480156200001e57600080fd5b5060405162003504380380620035048339810160408190526200004191620002ec565b8484848484620000513362000249565b60016002556001600160a01b0385166200007e576040516308990bff60e21b815260040160405180910390fd5b6001600160a01b038216620000a6576040516308990bff60e21b815260040160405180910390fd5b6001600160a01b038116620000ce576040516308990bff60e21b815260040160405180910390fd5b6001600160a01b038516608081905260408051630dfe168160e01b81529051630dfe1681916004808201926020929091908290030181865afa15801562000119573d6000803e3d6000fd5b505050506040513d601f19601f820116820180604052508101906200013f91906200035c565b6001600160a01b031660a0816001600160a01b0316815250506080516001600160a01b031663d21220a76040518163ffffffff1660e01b8152600401602060405180830381865afa15801562000199573d6000803e3d6000fd5b505050506040513d601f19601f82011682018060405250810190620001bf91906200035c565b6001600160a01b0390811660c052600380546001600160401b0386811668010000000000000000026001600160801b031990921690881617179055601280549184166001600160a01b03199092169190911790556064600b5566b1a2bc2ec50000600c55662386f26fc10000600d55620002398162000249565b5050505050505050505062000381565b600180546001600160a01b0319169055620002648162000267565b50565b600080546001600160a01b038381166001600160a01b0319831681178455604051919092169283917f8be0079c531659141344cd1fd0a4f28419497f9722a3daafe3b4186f6b6457e09190a35050565b80516001600160a01b0381168114620002cf57600080fd5b919050565b80516001600160401b0381168114620002cf57600080fd5b600080600080600060a086880312156200030557600080fd5b6200031086620002b7565b94506200032060208701620002d4565b93506200033060408701620002d4565b92506200034060608701620002b7565b91506200035060808701620002b7565b90509295509295909350565b6000602082840312156200036f57600080fd5b6200037a82620002b7565b9392505050565b60805160a05160c051613057620004ad6000396000818161076a0152818161091401528181610b8a01528181610ec301528181611089015281816110c3015281816111bb0152818161144801528181611482015281816115bb01528181611942015281816119d20152611d78015260008181610316015281816108da01528181610b4a01528181610e880152818161104d015281816110ff015281816111e10152818161140c015281816114be0152818161157b01528181611968015281816119ac0152611cc80152600081816103ec0152818161088901528181610db801528181610f34015281816110070152818161122a01528181611331015281816117d001528181611a0901528181611c9b01528181611d4a01528181612150015261248801526130576000f3fe608060405234801561001057600080fd5b506004361061030c5760003560e01c806379ba50971161019d578063beb84a85116100e9578063dbd4f70f116100a2578063e86e278f1161007c578063e86e278f146107b8578063ede5e584146107cb578063f2fde38b14610802578063f818b65b1461081557600080fd5b8063dbd4f70f1461078c578063e30c397814610794578063e74b981b146107a557600080fd5b8063beb84a8514610711578063c515ee2314610724578063c879657214610737578063ce7fc4f51461073f578063d1d7363514610752578063d21220a71461076557600080fd5b806395e17d84116101565780639f8e19ef116101305780639f8e19ef146106aa578063a29c2373146106c3578063a3f3d722146106ce578063bbbaffab146106e157600080fd5b806395e17d841461067b57806399462d851461068e5780639d2c3707146106a157600080fd5b806379ba5097146106365780637b4cab3d1461063e5780637f2917ce146106515780638129fc1c1461065a5780638d1a2091146106625780638da5cb5b1461066a57600080fd5b8063465ee0dc1161025c5780635c975abb116102155780636574c01d116101ef5780636574c01d1461060257806365fa9f371461061c57806371084cda14610625578063715018a61461062e57600080fd5b80635c975abb146105bf5780635df45a37146105d35780636308d90f146105ef57600080fd5b8063465ee0dc1461051857806346904840146105205780634f23f94c146105335780634fa420ee1461053b578063595b5447146105995780635b8e9c2c146105ac57600080fd5b80632d4b23bd116102c957806333cd09af116102a357806333cd09af1461048e57806335c7e925146104975780633af2888b1461049f5780633e09e777146104f557600080fd5b80632d4b23bd146104505780632f05205c14610463578063338a9cf01461047b57600080fd5b80630dfe1681146103115780630ef83b861461035557806316c38b3c146103d257806316f0115b146103e7578063204427981461040e5780632a87bfe514610439575b600080fd5b6103387f000000000000000000000000000000000000000000000000000000000000000081565b6040516001600160a01b0390911681526020015b60405180910390f35b600454600554600654600754600854600954600a5461038c969594939291906001600160401b03811690600160401b900460ff1688565b604080519889526020890197909752958701949094526060860192909252608085015260a08401526001600160401b031660c0830152151560e08201526101000161034c565b6103e56103e0366004612b93565b61081e565b005b6103387f000000000000000000000000000000000000000000000000000000000000000081565b600354610421906001600160401b031681565b6040516001600160401b03909116815260200161034c565b610442600c5481565b60405190815260200161034c565b6103e561045e366004612bc6565b61087e565b61046b6109fa565b604051901515815260200161034c565b6103e5610489366004612ca5565b610a29565b610442600d5481565b610442610a7b565b6104a7610a8a565b60405161034c9190600060c082019050825182526020830151602083015260408301516040830152606083015160608301526080830151608083015260a0830151151560a083015292915050565b6104fd610acb565b6040805193845260208401929092529082015260600161034c565b6103e5610b21565b601254610338906001600160a01b031681565b601454610442565b6103e5610549366004612cc0565b600a80546001600160401b03421668ffffffffffffffffff1990911617600160401b17905560048190556005556000600681905560075567016345785d8a0000600855662386f26fc10000600955565b6103e56105a7366004612cd9565b610c00565b6104fd6105ba366004612cd9565b610c22565b60135461046b90600160a01b900460ff1681565b600e54600f545b6040805192835260208301919091520161034c565b6103e56105fd366004612cc0565b601455565b60035461042190600160401b90046001600160401b031681565b61044260115481565b610442600b5481565b6103e5610ca9565b6103e5610cbd565b601354610338906001600160a01b031681565b610442600e5481565b6103e5610d3c565b610442610d5c565b6000546001600160a01b0316610338565b6103e5610689366004612cfb565b610d67565b6105da61069c366004612cfb565b610e62565b610442600f5481565b6103e56106b8366004612cd9565b600691909155600755565b600c54600d546105da565b6103e56106dc366004612d30565b610ffc565b6106f46106ef366004612d65565b611045565b60408051938452602084019290925215159082015260600161034c565b6104fd61071f366004612da1565b6112ba565b610442610732366004612d65565b611407565b6103e5611552565b6103e561074d366004612de4565b611629565b6103e5610760366004612cc0565b61166b565b6103387f000000000000000000000000000000000000000000000000000000000000000081565b6103e56116a8565b6001546001600160a01b0316610338565b6103e56107b3366004612ca5565b6116c4565b6103e56107c6366004612cd9565b611715565b6107de6107d9366004612e56565b61179f565b6040805182511515815260208084015190820152918101519082015260600161034c565b6103e5610810366004612ca5565b611b56565b61044260105481565b610826611bc7565b60138054821515600160a01b0260ff60a01b199091161790556040517f0e2fb031ee032dc02d8011dc50b816eb450cf856abd8261680dac74f72165bd29061087390831515815260200190565b60405180910390a150565b336001600160a01b037f000000000000000000000000000000000000000000000000000000000000000016146108c75760405163634bc70560e11b815260040160405180910390fd5b8215610901576109016001600160a01b037f0000000000000000000000000000000000000000000000000000000000000000163385611c21565b811561093b5761093b6001600160a01b037f0000000000000000000000000000000000000000000000000000000000000000163384611c21565b6013546001600160a01b0316156109f5576000610956611c84565b601354604051602481018390529192506000916001600160a01b039091169060440160408051601f198184030181529181526020820180516001600160e01b0316636768488960e11b179052516109ad9190612f03565b6000604051808303816000865af19150503d80600081146109ea576040519150601f19603f3d011682016040523d82523d6000602084013e6109ef565b606091505b50505050505b505050565b600a54600090600160401b900460ff16610a145750600090565b600b54610a2390600490611e26565b15905090565b610a31611bc7565b601380546001600160a01b0319166001600160a01b0383169081179091556040517ffc9644fe2df71698bac6f06561fa34267f572d47e7f989fbc515f4ef2d157ddb90600090a250565b6000610a85611c84565b905090565b610a92612b4d565b600a54600160401b900460ff16610abc57604051630bc39a9560e41b815260040160405180910390fd5b600b54610a8590600490611e64565b600a5460009081908190600160401b900460ff16610afc57604051630bc39a9560e41b815260040160405180910390fd5b610b066004611ebc565b9093509150818311610b185781610b1a565b825b9050909192565b6010805460118054600093849055929055908115610b7357601254610b73906001600160a01b037f00000000000000000000000000000000000000000000000000000000000000008116911684611c21565b8015610bb357601254610bb3906001600160a01b037f00000000000000000000000000000000000000000000000000000000000000008116911683611c21565b60125460408051848152602081018490526001600160a01b03909216917f9dcc99a1b17b7cd10678003bcc989988b1c3f6c4f23222693a65e677e3af386291015b60405180910390a25050565b610c08611bc7565b6000610c1360145490565b90506109f56004828585611efe565b600080600080610c326004611fee565b9050670de0b6b3a7640000600c5482610c4b9190612f35565b610c559190612f4c565b93508415610c795784600d5487610c6c9190612f35565b610c769190612f4c565b92505b610c838385612f6e565b91506706f05b59d3b20000821115610ca1576706f05b59d3b2000091505b509250925092565b610cb1611bc7565b610cbb600061203e565b565b60015433906001600160a01b03168114610d305760405162461bcd60e51b815260206004820152602960248201527f4f776e61626c6532537465703a2063616c6c6572206973206e6f7420746865206044820152683732bb9037bbb732b960b91b60648201526084015b60405180910390fd5b610d398161203e565b50565b610d44611bc7565b6000610d4f60145490565b9050610d39600482612057565b6000610a8560145490565b610d6f611bc7565b610d77612072565b6040516301c48a4360e61b815260048101849052602481018390523060448201526001600160a01b03828116606483015260a06084830152600060a48301527f0000000000000000000000000000000000000000000000000000000000000000169063712290c09060c401600060405180830381600087803b158015610dfc57600080fd5b505af1158015610e10573d6000803e3d6000fd5b505060408051868152602081018690526001600160a01b03851693507fb195a67e698c5700e4f48f7b7748dda3a206ee2767ef024b61a26d7b17b2d63a92500160405180910390a26109f56001600255565b600080610e6d611bc7565b610e75612072565b8415610eb057610eb06001600160a01b037f0000000000000000000000000000000000000000000000000000000000000000168430886120c9565b8315610eeb57610eeb6001600160a01b037f0000000000000000000000000000000000000000000000000000000000000000168430876120c9565b6040516320d20f4f60e11b815260048101869052602481018590526001600160a01b03848116604483015260a06064830152600060a4830181905260c0608484015260c48301527f000000000000000000000000000000000000000000000000000000000000000016906341a41e9e9060e40160408051808303816000875af1158015610f7c573d6000803e3d6000fd5b505050506040513d601f19601f82011682018060405250810190610fa09190612f81565b60408051838152602081018390529294509092506001600160a01b038516917fb7cd4486a08dcd2bf7da217a07d1069da69db8ffb3518c7014d6e6d4d973a552910160405180910390a2610ff46001600255565b935093915050565b336001600160a01b037f000000000000000000000000000000000000000000000000000000000000000016146109f55760405163634bc70560e11b815260040160405180910390fd5b6000806000807f00000000000000000000000000000000000000000000000000000000000000006001600160a01b0316876001600160a01b03161480156110bd57507f00000000000000000000000000000000000000000000000000000000000000006001600160a01b0316866001600160a01b0316145b905060007f00000000000000000000000000000000000000000000000000000000000000006001600160a01b0316886001600160a01b031614801561113357507f00000000000000000000000000000000000000000000000000000000000000006001600160a01b0316876001600160a01b0316145b905081158015611141575080155b1561115857600080600094509450945050506112b1565b600a54600160401b900460ff1661117b57600080600094509450945050506112b1565b600b5461118a90600490611e26565b156111a157600080600094509450945050506112b1565b60006111ac60145490565b9050600061120588856111df577f0000000000000000000000000000000000000000000000000000000000000000612107565b7f0000000000000000000000000000000000000000000000000000000000000000612107565b905061121388838387612228565b6040516370a0823160e01b81526001600160a01b037f0000000000000000000000000000000000000000000000000000000000000000811660048301529299509097506000918b16906370a0823190602401602060405180830381865afa158015611282573d6000803e3d6000fd5b505050506040513d601f19601f820116820180604052508101906112a69190612fa5565b881115955050505050505b93509350939050565b600a5460009081908190600160401b900460ff166112eb57604051630bc39a9560e41b815260040160405180910390fd5b60006112f76004611fee565b9050670de0b6b3a7640000600c54826113109190612f35565b61131a9190612f4c565b6040516370a0823160e01b81526001600160a01b037f0000000000000000000000000000000000000000000000000000000000000000811660048301529195506000918716906370a0823190602401602060405180830381865afa158015611386573d6000803e3d6000fd5b505050506040513d601f19601f820116820180604052508101906113aa9190612fa5565b9050600081116113bb5760006113d4565b80600d54886113ca9190612f35565b6113d49190612f4c565b93506113e08486612f6e565b92506706f05b59d3b200008311156113fe576706f05b59d3b2000092505b50509250925092565b6000807f00000000000000000000000000000000000000000000000000000000000000006001600160a01b0316856001600160a01b031614801561147c57507f00000000000000000000000000000000000000000000000000000000000000006001600160a01b0316846001600160a01b0316145b905060007f00000000000000000000000000000000000000000000000000000000000000006001600160a01b0316866001600160a01b03161480156114f257507f00000000000000000000000000000000000000000000000000000000000000006001600160a01b0316856001600160a01b0316145b905081158015611500575080155b1561151e57604051635975477760e11b815260040160405180910390fd5b600061152960145490565b905060006115378689612107565b905061154586838387612228565b5098975050505050505050565b600e8054600f80546000938490559290559081156115a4576012546115a4906001600160a01b037f00000000000000000000000000000000000000000000000000000000000000008116911684611c21565b80156115e4576012546115e4906001600160a01b037f00000000000000000000000000000000000000000000000000000000000000008116911683611c21565b60125460408051848152602081018490526001600160a01b03909216917f2e4fb6077d4acf86e12bb7411fb82b2b3eaa6a49787f4b1e17b423e7ea8411699101610bf4565b611631611bc7565b600380546001600160401b03928316600160401b026fffffffffffffffffffffffffffffffff199091169290931691909117919091179055565b611673611bc7565b600b8190556040518181527ff2510ae1838122ec0293334ab4736fa75c51a329d30f7232d3155bdbe1181d1090602001610873565b60006116b360145490565b90506116c06004826122f4565b5050565b6116cc611bc7565b6001600160a01b0381166116f3576040516308990bff60e21b815260040160405180910390fd5b601280546001600160a01b0319166001600160a01b0392909216919091179055565b61171d611bc7565b670de0b6b3a764000082118061173a575067016345785d8a000081115b156117585760405163445451db60e01b815260040160405180910390fd5b600c829055600d81905560408051838152602081018390527f98c83810812c6f75d3603ee13eb37e6aa08693ef814708691ace965256b660ff910160405180910390a15050565b6117c5604051806060016040528060001515815260200160008152602001600081525090565b336001600160a01b037f0000000000000000000000000000000000000000000000000000000000000000161461180e5760405163634bc70560e11b815260040160405180910390fd5b601354600160a01b900460ff1615611839576040516331b5bb9360e21b815260040160405180910390fd5b600a54600160401b900460ff1661186357604051630bc39a9560e41b815260040160405180910390fd5b600061186e60145490565b9050600061187d6004836122f4565b9050600b54816080015111156118fc578051602080830151608080850151600b5460408051968752948601939093529284019290925260608301527f22c0212e1347f03946c2ac71647a7039599efba481520ba15459a1c9c8657b30910160405180910390a1604051635332674b60e01b815260040160405180910390fd5b60208801803590600090611910908b612b93565b90506000836060015184604001511161192d578360600151611933565b83604001515b9050600061198e8484611966577f0000000000000000000000000000000000000000000000000000000000000000611988565b7f00000000000000000000000000000000000000000000000000000000000000005b8461244d565b905060008061199f86898588612560565b915091506000856119d0577f00000000000000000000000000000000000000000000000000000000000000006119f2565b7f00000000000000000000000000000000000000000000000000000000000000005b6040516370a0823160e01b81526001600160a01b037f00000000000000000000000000000000000000000000000000000000000000008116600483015291925084918316906370a0823190602401602060405180830381865afa158015611a5d573d6000803e3d6000fd5b505050506040513d601f19601f82011682018060405250810190611a819190612fa5565b1015611aa057604051633ed77fd160e01b815260040160405180910390fd5b611aac87848b89612600565b60405180606001604052806000151581526020018481526020018881525099508e6060016020810190611adf9190612ca5565b604080518815158152602081018a9052908101859052606081018b90526080810184905260a081018690526001600160a01b0391909116907f77e260ee96920bdc22e42693086faf03a5f75f928aa2f657eee2c3cf6276a0999060c00160405180910390a250505050505050505095945050505050565b611b5e611bc7565b600180546001600160a01b0383166001600160a01b03199091168117909155611b8f6000546001600160a01b031690565b6001600160a01b03167f38d16b8cac22d99fc7c124b9cd0de2d3fa1faef420bfe791d8c362d765e2270060405160405180910390a350565b6000546001600160a01b03163314610cbb5760405162461bcd60e51b815260206004820181905260248201527f4f776e61626c653a2063616c6c6572206973206e6f7420746865206f776e65726044820152606401610d27565b6040516001600160a01b0383166024820152604481018290526109f590849063a9059cbb60e01b906064015b60408051601f198184030181529190526020810180516001600160e01b03166001600160e01b03199093169290921790915261276c565b6040516370a0823160e01b81526001600160a01b037f00000000000000000000000000000000000000000000000000000000000000008116600483015260009182917f000000000000000000000000000000000000000000000000000000000000000016906370a0823190602401602060405180830381865afa158015611d0f573d6000803e3d6000fd5b505050506040513d601f19601f82011682018060405250810190611d339190612fa5565b6040516370a0823160e01b81526001600160a01b037f0000000000000000000000000000000000000000000000000000000000000000811660048301529192506000917f000000000000000000000000000000000000000000000000000000000000000016906370a0823190602401602060405180830381865afa158015611dbf573d6000803e3d6000fd5b505050506040513d601f19601f82011682018060405250810190611de39190612fa5565b90506000611df060145490565b9050600081611e07670de0b6b3a764000085612f35565b611e119190612f4c565b9050611e1d8185612f6e565b94505050505090565b6006820154600090600160401b900460ff16611e4457506001611e5e565b6000611e5884600001548560010154612841565b83109150505b92915050565b611e6c612b4d565b6006830154600160401b900460ff16611e985760405163d3e5bda560e01b815260040160405180910390fd5b611eb5836000015484600101548560020154866003015486612897565b9392505050565b60068101546000908190600160401b900460ff16611eed5760405163d3e5bda560e01b815260040160405180910390fd5b505060028101546003909101549091565b611f116001670de0b6b3a7640000612fbe565b821180611f235750655af3107a400082105b15611f41576040516326e445fb60e01b815260040160405180910390fd5b611f546001670de0b6b3a7640000612fbe565b811180611f665750655af3107a400081105b15611f84576040516326e445fb60e01b815260040160405180910390fd5b82600003611fa55760405163088bdee360e41b815260040160405180910390fd5b8284556001840192909255600060028401819055600384015560048301556005820155600601805468ffffffffffffffffff19166001600160401b03421617600160401b179055565b6006810154600090600160401b900460ff1661201d5760405163d3e5bda560e01b815260040160405180910390fd5b8160030154826002015411612036578160030154611e5e565b506002015490565b600180546001600160a01b0319169055610d39816128f4565b6116c0828267016345785d8a0000662386f26fc10000611efe565b60028054036120c35760405162461bcd60e51b815260206004820152601f60248201527f5265656e7472616e637947756172643a207265656e7472616e742063616c6c006044820152606401610d27565b60028055565b6040516001600160a01b03808516602483015283166044820152606481018290526121019085906323b872dd60e01b90608401611c4d565b50505050565b6000806121146004611fee565b90506000670de0b6b3a7640000600c548361212f9190612f35565b6121399190612f4c565b6040516370a0823160e01b81526001600160a01b037f0000000000000000000000000000000000000000000000000000000000000000811660048301529192506000918616906370a0823190602401602060405180830381865afa1580156121a5573d6000803e3d6000fd5b505050506040513d601f19601f820116820180604052508101906121c99190612fa5565b905060008082116121db5760006121f4565b81600d54886121ea9190612f35565b6121f49190612f4c565b90506122008184612f6e565b94506706f05b59d3b2000085111561221e576706f05b59d3b2000094505b5050505092915050565b6000806000831561228757670de0b6b3a76400006122468789612f35565b6122509190612f4c565b905061226485670de0b6b3a7640000612f6e565b612276670de0b6b3a764000083612f35565b6122809190612f4c565b92506122d0565b8561229a670de0b6b3a764000089612f35565b6122a49190612f4c565b9050670de0b6b3a76400006122b98682612fbe565b6122c39083612f35565b6122cd9190612f4c565b92505b8281116122de5760006122e8565b6122e88382612fbe565b91505094509492505050565b6122fc612b4d565b6006830154600160401b900460ff166123285760405163d3e5bda560e01b815260040160405180910390fd5b816000036123495760405163088bdee360e41b815260040160405180910390fd5b82546000908311612366578354612361908490612fbe565b612372565b83546123729084612fbe565b9050600084600101548411612396578385600101546123919190612fbe565b6123a5565b60018501546123a59085612fbe565b90506123ba8560000154858760040154612944565b8555600185015460058601546123d291908690612944565b85600101819055506123ed85600201548387600401546129b6565b856002018190555061240885600301548287600501546129b6565b6003860181905560068601805467ffffffffffffffff1916426001600160401b0316179055855460018701546002880154612444936000612897565b95945050505050565b600080670de0b6b3a7640000600c54846124679190612f35565b6124719190612f4c565b6040516370a0823160e01b81526001600160a01b037f0000000000000000000000000000000000000000000000000000000000000000811660048301529192506000918616906370a0823190602401602060405180830381865afa1580156124dd573d6000803e3d6000fd5b505050506040513d601f19601f820116820180604052508101906125019190612fa5565b9050600080821161251357600061252c565b81600d54886125229190612f35565b61252c9190612f4c565b90506125388184612f6e565b93506706f05b59d3b20000841115612556576706f05b59d3b2000093505b5050509392505050565b60008082156125ae57670de0b6b3a764000061257c8582612f6e565b6125869087612f35565b6125909190612f4c565b90508061259d8688612f35565b6125a79190612f4c565b91506125f7565b670de0b6b3a76400006125c18582612fbe565b6125cb9087612f35565b6125d59190612f4c565b9050806125ea670de0b6b3a764000088612f35565b6125f49190612f4c565b91505b94509492505050565b6000811561262c57670de0b6b3a764000061261b8487612f35565b6126259190612f4c565b905061264c565b8261263f670de0b6b3a764000087612f35565b6126499190612f4c565b90505b600084821161265c576000612666565b6126668583612fbe565b9050821561268b5780600f60008282546126809190612f6e565b909155506126a39050565b80600e600082825461269d9190612f6e565b90915550505b6013546001600160a01b0316156127645760006126be611c84565b60135460405160248101859052604481018390529192506000916001600160a01b039091169060640160408051601f198184030181529181526020820180516001600160e01b03166348c07f5b60e11b1790525161271c9190612f03565b6000604051808303816000865af19150503d8060008114612759576040519150601f19603f3d011682016040523d82523d6000602084013e61275e565b606091505b50505050505b505050505050565b60006127c1826040518060400160405280602081526020017f5361666545524332303a206c6f772d6c6576656c2063616c6c206661696c6564815250856001600160a01b0316612a3a9092919063ffffffff16565b90508051600014806127e25750808060200190518101906127e29190612fd1565b6109f55760405162461bcd60e51b815260206004820152602a60248201527f5361666545524332303a204552433230206f7065726174696f6e20646964206e6044820152691bdd081cdd58d8d9595960b21b6064820152608401610d27565b6000816000036128545750612710611e5e565b600082841161286c576128678484612fbe565b612876565b6128768385612fbe565b90508261288561271083612f35565b61288f9190612f4c565b949350505050565b61289f612b4d565b60006128ab8787612841565b90506040518060c001604052808881526020018781526020018681526020018581526020018281526020016000851180156128e557508483115b15159052979650505050505050565b600080546001600160a01b038381166001600160a01b0319831681178455604051919092169283917f8be0079c531659141344cd1fd0a4f28419497f9722a3daafe3b4186f6b6457e09190a35050565b600083831061298557670de0b6b3a76400006129608585612fbe565b61296a9084612f35565b6129749190612f4c565b61297e9085612f6e565b9050611eb5565b670de0b6b3a76400006129988486612fbe565b6129a29084612f35565b6129ac9190612f4c565b61297e9085612fbe565b600080670de0b6b3a76400006129cc8580612f35565b6129d69190612f4c565b90506000670de0b6b3a76400006129ed8386612f35565b6129f79190612f4c565b90506000670de0b6b3a764000087612a0f8783612fbe565b612a199190612f35565b612a239190612f4c565b9050612a2f8183612f6e565b979650505050505050565b606061288f848460008585600080866001600160a01b03168587604051612a619190612f03565b60006040518083038185875af1925050503d8060008114612a9e576040519150601f19603f3d011682016040523d82523d6000602084013e612aa3565b606091505b5091509150612a2f8783838760608315612b1e578251600003612b17576001600160a01b0385163b612b175760405162461bcd60e51b815260206004820152601d60248201527f416464726573733a2063616c6c20746f206e6f6e2d636f6e74726163740000006044820152606401610d27565b508161288f565b61288f8383815115612b335781518083602001fd5b8060405162461bcd60e51b8152600401610d279190612fee565b6040518060c0016040528060008152602001600081526020016000815260200160008152602001600081526020016000151581525090565b8015158114610d3957600080fd5b600060208284031215612ba557600080fd5b8135611eb581612b85565b634e487b7160e01b600052604160045260246000fd5b600080600060608486031215612bdb57600080fd5b833592506020840135915060408401356001600160401b0380821115612c0057600080fd5b818601915086601f830112612c1457600080fd5b813581811115612c2657612c26612bb0565b604051601f8201601f19908116603f01168101908382118183101715612c4e57612c4e612bb0565b81604052828152896020848701011115612c6757600080fd5b8260208601602083013760006020848301015280955050505050509250925092565b80356001600160a01b0381168114612ca057600080fd5b919050565b600060208284031215612cb757600080fd5b611eb582612c89565b600060208284031215612cd257600080fd5b5035919050565b60008060408385031215612cec57600080fd5b50508035926020909101359150565b600080600060608486031215612d1057600080fd5b8335925060208401359150612d2760408501612c89565b90509250925092565b600080600060608486031215612d4557600080fd5b8335612d5081612b85565b95602085013595506040909401359392505050565b600080600060608486031215612d7a57600080fd5b612d8384612c89565b9250612d9160208501612c89565b9150604084013590509250925092565b60008060408385031215612db457600080fd5b82359150612dc460208401612c89565b90509250929050565b80356001600160401b0381168114612ca057600080fd5b60008060408385031215612df757600080fd5b612e0083612dcd565b9150612dc460208401612dcd565b60008083601f840112612e2057600080fd5b5081356001600160401b03811115612e3757600080fd5b602083019150836020828501011115612e4f57600080fd5b9250929050565b6000806000806000858703610100811215612e7057600080fd5b60c0811215612e7e57600080fd5b5085945060c08601356001600160401b0380821115612e9c57600080fd5b612ea889838a01612e0e565b909650945060e0880135915080821115612ec157600080fd5b50612ece88828901612e0e565b969995985093965092949392505050565b60005b83811015612efa578181015183820152602001612ee2565b50506000910152565b60008251612f15818460208701612edf565b9190910192915050565b634e487b7160e01b600052601160045260246000fd5b8082028115828204841417611e5e57611e5e612f1f565b600082612f6957634e487b7160e01b600052601260045260246000fd5b500490565b80820180821115611e5e57611e5e612f1f565b60008060408385031215612f9457600080fd5b505080516020909101519092909150565b600060208284031215612fb757600080fd5b5051919050565b81810381811115611e5e57611e5e612f1f565b600060208284031215612fe357600080fd5b8151611eb581612b85565b602081526000825180602084015261300d816040850160208701612edf565b601f01601f1916919091016040019291505056fea2646970667358221220f20529e05ed1fb80efca143a08aae80ef6452d9af5f090bfaa1a6d578c4894bc64736f6c63430008130033",
  "linkReferences": {},
  "deployedLinkReferences": {}
}