{
  "_format": "hh-sol-artifact-1",
  "contractName": "HLEALM",
  "sourceName": "src/modules/HLEALM.sol",
  "abi": [
    {
      "inputs": [
        {
          "internalType": "address",
          "name": "_pool",
          "type": "address"
        },
        {
          "internalType": "uint64",
          "name": "_token0Index",
          "type": "uint64"
        },
        {
          "internalType": "uint64",
          "name": "_token1Index",
          "type": "uint64"
        },
        {
          "internalType": "address",
          "name": "_feeRecipient",
          "type": "address"
        },
        {
          "internalType": "address",
          "name": "_owner",
          "type": "address"
        }
      ],
      "stateMutability": "nonpayable",
      "type": "constructor"
    },
    {
      "inputs": [],
      "name": "HLEALM__InsufficientLiquidity",
      "type": "error"
    },
    {
      "inputs": [],
      "name": "HLEALM__InvalidSpreadConfig",
      "type": "error"
    },
    {
      "inputs": [],
      "name": "HLEALM__InvalidTokenPair",
      "type": "error"
    },
    {
      "inputs": [],
      "name": "HLEALM__NotInitialized",
      "type": "error"
    },
    {
      "inputs": [],
      "name": "HLEALM__OnlyPool",
      "type": "error"
    },
    {
      "inputs": [],
      "name": "HLEALM__Paused",
      "type": "error"
    },
    {
      "inputs": [],
      "name": "HLEALM__PriceDeviationTooHigh",
      "type": "error"
    },
    {
      "inputs": [],
      "name": "HLEALM__SlippageExceeded",
      "type": "error"
    },
    {
      "inputs": [],
      "name": "HLEALM__VolatilityTooHigh",
      "type": "error"
    },
    {
      "inputs": [],
      "name": "HLEALM__ZeroAddress",
      "type": "error"
    },
    {
      "inputs": [],
      "name": "L1OracleAdapter__StalePrice",
      "type": "error"
    },
    {
      "inputs": [],
      "name": "PrecompileLib__SpotPxPrecompileFailed",
      "type": "error"
    },
    {
      "inputs": [],
      "name": "TwoSpeedEWMA__InvalidAlpha",
      "type": "error"
    },
    {
      "inputs": [],
      "name": "TwoSpeedEWMA__NotInitialized",
      "type": "error"
    },
    {
      "inputs": [],
      "name": "TwoSpeedEWMA__ZeroPrice",
      "type": "error"
    },
    {
      "anonymous": false,
      "inputs": [
        {
          "indexed": true,
          "internalType": "address",
          "name": "recipient",
          "type": "address"
        },
        {
          "indexed": false,
          "internalType": "uint256",
          "name": "amount0",
          "type": "uint256"
        },
        {
          "indexed": false,
          "internalType": "uint256",
          "name": "amount1",
          "type": "uint256"
        }
      ],
      "name": "FeesCollected",
      "type": "event"
    },
    {
      "anonymous": false,
      "inputs": [
        {
          "indexed": true,
          "internalType": "address",
          "name": "sender",
          "type": "address"
        },
        {
          "indexed": false,
          "internalType": "uint256",
          "name": "amount0",
          "type": "uint256"
        },
        {
          "indexed": false,
          "internalType": "uint256",
          "name": "amount1",
          "type": "uint256"
        }
      ],
      "name": "LiquidityDeposited",
      "type": "event"
    },
    {
      "anonymous": false,
      "inputs": [
        {
          "indexed": true,
          "internalType": "address",
          "name": "recipient",
          "type": "address"
        },
        {
          "indexed": false,
          "internalType": "uint256",
          "name": "amount0",
          "type": "uint256"
        },
        {
          "indexed": false,
          "internalType": "uint256",
          "name": "amount1",
          "type": "uint256"
        }
      ],
      "name": "LiquidityWithdrawn",
      "type": "event"
    },
    {
      "anonymous": false,
      "inputs": [
        {
          "indexed": true,
          "internalType": "address",
          "name": "previousOwner",
          "type": "address"
        },
        {
          "indexed": true,
          "internalType": "address",
          "name": "newOwner",
          "type": "address"
        }
      ],
      "name": "OwnershipTransferStarted",
      "type": "event"
    },
    {
      "anonymous": false,
      "inputs": [
        {
          "indexed": true,
          "internalType": "address",
          "name": "previousOwner",
          "type": "address"
        },
        {
          "indexed": true,
          "internalType": "address",
          "name": "newOwner",
          "type": "address"
        }
      ],
      "name": "OwnershipTransferred",
      "type": "event"
    },
    {
      "anonymous": false,
      "inputs": [
        {
          "indexed": false,
          "internalType": "bool",
          "name": "isPaused",
          "type": "bool"
        }
      ],
      "name": "Paused",
      "type": "event"
    },
    {
      "anonymous": false,
      "inputs": [
        {
          "indexed": false,
          "internalType": "uint256",
          "name": "kVol",
          "type": "uint256"
        },
        {
          "indexed": false,
          "internalType": "uint256",
          "name": "kImpact",
          "type": "uint256"
        }
      ],
      "name": "SpreadConfigUpdated",
      "type": "event"
    },
    {
      "anonymous": false,
      "inputs": [
        {
          "indexed": true,
          "internalType": "address",
          "name": "recipient",
          "type": "address"
        },
        {
          "indexed": false,
          "internalType": "uint256",
          "name": "amount0",
          "type": "uint256"
        },
        {
          "indexed": false,
          "internalType": "uint256",
          "name": "amount1",
          "type": "uint256"
        }
      ],
      "name": "SurplusCollected",
      "type": "event"
    },
    {
      "anonymous": false,
      "inputs": [
        {
          "indexed": true,
          "internalType": "address",
          "name": "sender",
          "type": "address"
        },
        {
          "indexed": false,
          "internalType": "bool",
          "name": "isBuy",
          "type": "bool"
        },
        {
          "indexed": false,
          "internalType": "uint256",
          "name": "amountIn",
          "type": "uint256"
        },
        {
          "indexed": false,
          "internalType": "uint256",
          "name": "amountOut",
          "type": "uint256"
        },
        {
          "indexed": false,
          "internalType": "uint256",
          "name": "oraclePrice",
          "type": "uint256"
        },
        {
          "indexed": false,
          "internalType": "uint256",
          "name": "effectivePrice",
          "type": "uint256"
        },
        {
          "indexed": false,
          "internalType": "uint256",
          "name": "spreadUsed",
          "type": "uint256"
        }
      ],
      "name": "SwapExecuted",
      "type": "event"
    },
    {
      "anonymous": false,
      "inputs": [
        {
          "indexed": false,
          "internalType": "uint256",
          "name": "fastEWMA",
          "type": "uint256"
        },
        {
          "indexed": false,
          "internalType": "uint256",
          "name": "slowEWMA",
          "type": "uint256"
        },
        {
          "indexed": false,
          "internalType": "uint256",
          "name": "deviationBps",
          "type": "uint256"
        },
        {
          "indexed": false,
          "internalType": "uint256",
          "name": "thresholdBps",
          "type": "uint256"
        }
      ],
      "name": "VolatilityGated",
      "type": "event"
    },
    {
      "anonymous": false,
      "inputs": [
        {
          "indexed": false,
          "internalType": "uint256",
          "name": "volatilityThresholdBps",
          "type": "uint256"
        }
      ],
      "name": "VolatilityThresholdUpdated",
      "type": "event"
    },
    {
      "anonymous": false,
      "inputs": [
        {
          "indexed": true,
          "internalType": "address",
          "name": "optimizer",
          "type": "address"
        }
      ],
      "name": "YieldOptimizerSet",
      "type": "event"
    },
    {
      "inputs": [],
      "name": "acceptOwnership",
      "outputs": [],
      "stateMutability": "nonpayable",
      "type": "function"
    },
    {
      "inputs": [],
      "name": "accumulatedFees0",
      "outputs": [
        {
          "internalType": "uint256",
          "name": "",
          "type": "uint256"
        }
      ],
      "stateMutability": "view",
      "type": "function"
    },
    {
      "inputs": [],
      "name": "accumulatedFees1",
      "outputs": [
        {
          "internalType": "uint256",
          "name": "",
          "type": "uint256"
        }
      ],
      "stateMutability": "view",
      "type": "function"
    },
    {
      "inputs": [],
      "name": "canTrade",
      "outputs": [
        {
          "internalType": "bool",
          "name": "",
          "type": "bool"
        }
      ],
      "stateMutability": "view",
      "type": "function"
    },
    {
      "inputs": [],
      "name": "collectFees",
      "outputs": [],
      "stateMutability": "nonpayable",
      "type": "function"
    },
    {
      "inputs": [],
      "name": "collectSurplus",
      "outputs": [],
      "stateMutability": "nonpayable",
      "type": "function"
    },
    {
      "inputs": [
        {
          "internalType": "uint256",
          "name": "amount0",
          "type": "uint256"
        },
        {
          "internalType": "uint256",
          "name": "amount1",
          "type": "uint256"
        },
        {
          "internalType": "address",
          "name": "sender",
          "type": "address"
        }
      ],
      "name": "depositLiquidity",
      "outputs": [
        {
          "internalType": "uint256",
          "name": "amount0Deposited",
          "type": "uint256"
        },
        {
          "internalType": "uint256",
          "name": "amount1Deposited",
          "type": "uint256"
        }
      ],
      "stateMutability": "nonpayable",
      "type": "function"
    },
    {
      "inputs": [],
      "name": "feeRecipient",
      "outputs": [
        {
          "internalType": "address",
          "name": "",
          "type": "address"
        }
      ],
      "stateMutability": "view",
      "type": "function"
    },
    {
      "inputs": [],
      "name": "getAccumulatedFees",
      "outputs": [
        {
          "internalType": "uint256",
          "name": "fees0",
          "type": "uint256"
        },
        {
          "internalType": "uint256",
          "name": "fees1",
          "type": "uint256"
        }
      ],
      "stateMutability": "view",
      "type": "function"
    },
    {
      "inputs": [
        {
          "components": [
            {
              "internalType": "bool",
              "name": "isZeroToOne",
              "type": "bool"
            },
            {
              "internalType": "uint256",
              "name": "amountInMinusFee",
              "type": "uint256"
            },
            {
              "internalType": "uint256",
              "name": "feeInBips",
              "type": "uint256"
            },
            {
              "internalType": "address",
              "name": "sender",
              "type": "address"
            },
            {
              "internalType": "address",
              "name": "recipient",
              "type": "address"
            },
            {
              "internalType": "address",
              "name": "tokenOutSwap",
              "type": "address"
            }
          ],
          "internalType": "struct ALMLiquidityQuoteInput",
          "name": "_almLiquidityQuoteInput",
          "type": "tuple"
        },
        {
          "internalType": "bytes",
          "name": "",
          "type": "bytes"
        },
        {
          "internalType": "bytes",
          "name": "",
          "type": "bytes"
        }
      ],
      "name": "getLiquidityQuote",
      "outputs": [
        {
          "components": [
            {
              "internalType": "bool",
              "name": "isCallbackOnSwap",
              "type": "bool"
            },
            {
              "internalType": "uint256",
              "name": "amountOut",
              "type": "uint256"
            },
            {
              "internalType": "uint256",
              "name": "amountInFilled",
              "type": "uint256"
            }
          ],
          "internalType": "struct ALMLiquidityQuote",
          "name": "quote",
          "type": "tuple"
        }
      ],
      "stateMutability": "nonpayable",
      "type": "function"
    },
    {
      "inputs": [],
      "name": "getOracleMidPrice",
      "outputs": [
        {
          "internalType": "uint256",
          "name": "price",
          "type": "uint256"
        }
      ],
      "stateMutability": "view",
      "type": "function"
    },
    {
      "inputs": [
        {
          "internalType": "address",
          "name": "tokenIn",
          "type": "address"
        },
        {
          "internalType": "address",
          "name": "tokenOut",
          "type": "address"
        },
        {
          "internalType": "uint256",
          "name": "amountIn",
          "type": "uint256"
        }
      ],
      "name": "getQuote",
      "outputs": [
        {
          "internalType": "uint256",
          "name": "amountOut",
          "type": "uint256"
        }
      ],
      "stateMutability": "view",
      "type": "function"
    },
    {
      "inputs": [
        {
          "internalType": "uint256",
          "name": "amountIn",
          "type": "uint256"
        },
        {
          "internalType": "address",
          "name": "tokenIn",
          "type": "address"
        }
      ],
      "name": "getSpread",
      "outputs": [
        {
          "internalType": "uint256",
          "name": "volSpread",
          "type": "uint256"
        },
        {
          "internalType": "uint256",
          "name": "impactSpread",
          "type": "uint256"
        },
        {
          "internalType": "uint256",
          "name": "totalSpread",
          "type": "uint256"
        }
      ],
      "stateMutability": "view",
      "type": "function"
    },
    {
      "inputs": [],
      "name": "getSpreadConfig",
      "outputs": [
        {
          "internalType": "uint256",
          "name": "_kVol",
          "type": "uint256"
        },
        {
          "internalType": "uint256",
          "name": "_kImpact",
          "type": "uint256"
        }
      ],
      "stateMutability": "view",
      "type": "function"
    },
    {
      "inputs": [],
      "name": "getTotalLiquidity",
      "outputs": [
        {
          "internalType": "uint256",
          "name": "liquidity",
          "type": "uint256"
        }
      ],
      "stateMutability": "view",
      "type": "function"
    },
    {
      "inputs": [],
      "name": "getVariance",
      "outputs": [
        {
          "internalType": "uint256",
          "name": "fastVar",
          "type": "uint256"
        },
        {
          "internalType": "uint256",
          "name": "slowVar",
          "type": "uint256"
        },
        {
          "internalType": "uint256",
          "name": "maxVar",
          "type": "uint256"
        }
      ],
      "stateMutability": "view",
      "type": "function"
    },
    {
      "inputs": [],
      "name": "getVolatility",
      "outputs": [
        {
          "components": [
            {
              "internalType": "uint256",
              "name": "fastEWMA",
              "type": "uint256"
            },
            {
              "internalType": "uint256",
              "name": "slowEWMA",
              "type": "uint256"
            },
            {
              "internalType": "uint256",
              "name": "fastVar",
              "type": "uint256"
            },
            {
              "internalType": "uint256",
              "name": "slowVar",
              "type": "uint256"
            },
            {
              "internalType": "uint256",
              "name": "deviationBps",
              "type": "uint256"
            },
            {
              "internalType": "bool",
              "name": "isVolatile",
              "type": "bool"
            }
          ],
          "internalType": "struct TwoSpeedEWMA.VolatilityReading",
          "name": "reading",
          "type": "tuple"
        }
      ],
      "stateMutability": "view",
      "type": "function"
    },
    {
      "inputs": [],
      "name": "initialize",
      "outputs": [],
      "stateMutability": "nonpayable",
      "type": "function"
    },
    {
      "inputs": [
        {
          "internalType": "uint256",
          "name": "fastAlpha",
          "type": "uint256"
        },
        {
          "internalType": "uint256",
          "name": "slowAlpha",
          "type": "uint256"
        }
      ],
      "name": "initializeWithAlphas",
      "outputs": [],
      "stateMutability": "nonpayable",
      "type": "function"
    },
    {
      "inputs": [],
      "name": "kImpact",
      "outputs": [
        {
          "internalType": "uint256",
          "name": "",
          "type": "uint256"
        }
      ],
      "stateMutability": "view",
      "type": "function"
    },
    {
      "inputs": [],
      "name": "kVol",
      "outputs": [
        {
          "internalType": "uint256",
          "name": "",
          "type": "uint256"
        }
      ],
      "stateMutability": "view",
      "type": "function"
    },
    {
      "inputs": [
        {
          "internalType": "uint256",
          "name": "_amount0",
          "type": "uint256"
        },
        {
          "internalType": "uint256",
          "name": "_amount1",
          "type": "uint256"
        },
        {
          "internalType": "bytes",
          "name": "",
          "type": "bytes"
        }
      ],
      "name": "onDepositLiquidityCallback",
      "outputs": [],
      "stateMutability": "nonpayable",
      "type": "function"
    },
    {
      "inputs": [
        {
          "internalType": "bool",
          "name": "",
          "type": "bool"
        },
        {
          "internalType": "uint256",
          "name": "",
          "type": "uint256"
        },
        {
          "internalType": "uint256",
          "name": "",
          "type": "uint256"
        }
      ],
      "name": "onSwapCallback",
      "outputs": [],
      "stateMutability": "nonpayable",
      "type": "function"
    },
    {
      "inputs": [],
      "name": "owner",
      "outputs": [
        {
          "internalType": "address",
          "name": "",
          "type": "address"
        }
      ],
      "stateMutability": "view",
      "type": "function"
    },
    {
      "inputs": [],
      "name": "paused",
      "outputs": [
        {
          "internalType": "bool",
          "name": "",
          "type": "bool"
        }
      ],
      "stateMutability": "view",
      "type": "function"
    },
    {
      "inputs": [],
      "name": "pendingOwner",
      "outputs": [
        {
          "internalType": "address",
          "name": "",
          "type": "address"
        }
      ],
      "stateMutability": "view",
      "type": "function"
    },
    {
      "inputs": [],
      "name": "pool",
      "outputs": [
        {
          "internalType": "contract ISovereignPool",
          "name": "",
          "type": "address"
        }
      ],
      "stateMutability": "view",
      "type": "function"
    },
    {
      "inputs": [
        {
          "internalType": "address",
          "name": "tokenIn",
          "type": "address"
        },
        {
          "internalType": "address",
          "name": "tokenOut",
          "type": "address"
        },
        {
          "internalType": "uint256",
          "name": "amountIn",
          "type": "uint256"
        }
      ],
      "name": "previewSwap",
      "outputs": [
        {
          "internalType": "uint256",
          "name": "amountOut",
          "type": "uint256"
        },
        {
          "internalType": "uint256",
          "name": "spreadFee",
          "type": "uint256"
        },
        {
          "internalType": "bool",
          "name": "canExecute",
          "type": "bool"
        }
      ],
      "stateMutability": "view",
      "type": "function"
    },
    {
      "inputs": [],
      "name": "priceEWMA",
      "outputs": [
        {
          "internalType": "uint256",
          "name": "fastEWMA",
          "type": "uint256"
        },
        {
          "internalType": "uint256",
          "name": "slowEWMA",
          "type": "uint256"
        },
        {
          "internalType": "uint256",
          "name": "fastVar",
          "type": "uint256"
        },
        {
          "internalType": "uint256",
          "name": "slowVar",
          "type": "uint256"
        },
        {
          "internalType": "uint256",
          "name": "fastAlpha",
          "type": "uint256"
        },
        {
          "internalType": "uint256",
          "name": "slowAlpha",
          "type": "uint256"
        },
        {
          "internalType": "uint64",
          "name": "lastUpdateTime",
          "type": "uint64"
        },
        {
          "internalType": "bool",
          "name": "initialized",
          "type": "bool"
        }
      ],
      "stateMutability": "view",
      "type": "function"
    },
    {
      "inputs": [],
      "name": "renounceOwnership",
      "outputs": [],
      "stateMutability": "nonpayable",
      "type": "function"
    },
    {
      "inputs": [
        {
          "internalType": "address",
          "name": "_recipient",
          "type": "address"
        }
      ],
      "name": "setFeeRecipient",
      "outputs": [],
      "stateMutability": "nonpayable",
      "type": "function"
    },
    {
      "inputs": [
        {
          "internalType": "bool",
          "name": "_paused",
          "type": "bool"
        }
      ],
      "name": "setPaused",
      "outputs": [],
      "stateMutability": "nonpayable",
      "type": "function"
    },
    {
      "inputs": [
        {
          "internalType": "uint256",
          "name": "_kVol",
          "type": "uint256"
        },
        {
          "internalType": "uint256",
          "name": "_kImpact",
          "type": "uint256"
        }
      ],
      "name": "setSpreadConfig",
      "outputs": [],
      "stateMutability": "nonpayable",
      "type": "function"
    },
    {
      "inputs": [
        {
          "internalType": "uint64",
          "name": "_token0Index",
          "type": "uint64"
        },
        {
          "internalType": "uint64",
          "name": "_token1Index",
          "type": "uint64"
        }
      ],
      "name": "setTokenIndices",
      "outputs": [],
      "stateMutability": "nonpayable",
      "type": "function"
    },
    {
      "inputs": [
        {
          "internalType": "uint256",
          "name": "_volatilityThresholdBps",
          "type": "uint256"
        }
      ],
      "name": "setVolatilityThreshold",
      "outputs": [],
      "stateMutability": "nonpayable",
      "type": "function"
    },
    {
      "inputs": [
        {
          "internalType": "address",
          "name": "_optimizer",
          "type": "address"
        }
      ],
      "name": "setYieldOptimizer",
      "outputs": [],
      "stateMutability": "nonpayable",
      "type": "function"
    },
    {
      "inputs": [],
      "name": "surplusCaptured0",
      "outputs": [
        {
          "internalType": "uint256",
          "name": "",
          "type": "uint256"
        }
      ],
      "stateMutability": "view",
      "type": "function"
    },
    {
      "inputs": [],
      "name": "surplusCaptured1",
      "outputs": [
        {
          "internalType": "uint256",
          "name": "",
          "type": "uint256"
        }
      ],
      "stateMutability": "view",
      "type": "function"
    },
    {
      "inputs": [],
      "name": "token0",
      "outputs": [
        {
          "internalType": "address",
          "name": "",
          "type": "address"
        }
      ],
      "stateMutability": "view",
      "type": "function"
    },
    {
      "inputs": [],
      "name": "token0Index",
      "outputs": [
        {
          "internalType": "uint64",
          "name": "",
          "type": "uint64"
        }
      ],
      "stateMutability": "view",
      "type": "function"
    },
    {
      "inputs": [],
      "name": "token1",
      "outputs": [
        {
          "internalType": "address",
          "name": "",
          "type": "address"
        }
      ],
      "stateMutability": "view",
      "type": "function"
    },
    {
      "inputs": [],
      "name": "token1Index",
      "outputs": [
        {
          "internalType": "uint64",
          "name": "",
          "type": "uint64"
        }
      ],
      "stateMutability": "view",
      "type": "function"
    },
    {
      "inputs": [
        {
          "internalType": "address",
          "name": "newOwner",
          "type": "address"
        }
      ],
      "name": "transferOwnership",
      "outputs": [],
      "stateMutability": "nonpayable",
      "type": "function"
    },
    {
      "inputs": [],
      "name": "volatilityThresholdBps",
      "outputs": [
        {
          "internalType": "uint256",
          "name": "",
          "type": "uint256"
        }
      ],
      "stateMutability": "view",
      "type": "function"
    },
    {
      "inputs": [
        {
          "internalType": "uint256",
          "name": "amount0",
          "type": "uint256"
        },
        {
          "internalType": "uint256",
          "name": "amount1",
          "type": "uint256"
        },
        {
          "internalType": "address",
          "name": "recipient",
          "type": "address"
        }
      ],
      "name": "withdrawLiquidity",
      "outputs": [],
      "stateMutability": "nonpayable",
      "type": "function"
    },
    {
      "inputs": [],
      "name": "yieldOptimizer",
      "outputs": [
        {
          "internalType": "address",
          "name": "",
          "type": "address"
        }
      ],
      "stateMutability": "view",
      "type": "function"
    }
  ],
  "bytecode": "0x60e06040523480156200001157600080fd5b5060405162003524380380620035248339810160408190526200003491620002d5565b6200003f3362000232565b60016002556001600160a01b0385166200006c576040516308990bff60e21b815260040160405180910390fd5b6001600160a01b03821662000094576040516308990bff60e21b815260040160405180910390fd5b6001600160a01b038116620000bc576040516308990bff60e21b815260040160405180910390fd5b6001600160a01b038516608081905260408051630dfe168160e01b81529051630dfe1681916004808201926020929091908290030181865afa15801562000107573d6000803e3d6000fd5b505050506040513d601f19601f820116820180604052508101906200012d919062000345565b6001600160a01b031660a0816001600160a01b0316815250506080516001600160a01b031663d21220a76040518163ffffffff1660e01b8152600401602060405180830381865afa15801562000187573d6000803e3d6000fd5b505050506040513d601f19601f82011682018060405250810190620001ad919062000345565b6001600160a01b0390811660c052600380546001600160401b0386811668010000000000000000026001600160801b031990921690881617179055601280549184166001600160a01b03199092169190911790556064600b5566b1a2bc2ec50000600c55662386f26fc10000600d55620002278162000232565b50505050506200036a565b600180546001600160a01b03191690556200024d8162000250565b50565b600080546001600160a01b038381166001600160a01b0319831681178455604051919092169283917f8be0079c531659141344cd1fd0a4f28419497f9722a3daafe3b4186f6b6457e09190a35050565b80516001600160a01b0381168114620002b857600080fd5b919050565b80516001600160401b0381168114620002b857600080fd5b600080600080600060a08688031215620002ee57600080fd5b620002f986620002a0565b94506200030960208701620002bd565b93506200031960408701620002bd565b92506200032960608701620002a0565b91506200033960808701620002a0565b90509295509295909350565b6000602082840312156200035857600080fd5b6200036382620002a0565b9392505050565b60805160a05160c05161308e6200049660003960008181610643015281816107e501528181610a5b01528181610d0a01528181610ed001528181610f0a015281816110010152818161128e015281816112c8015281816114000152818161176a015281816117fa0152611ba0015260008181610294015281816107ab01528181610a1b01528181610ccf01528181610e9401528181610f46015281816110270152818161125201528181611304015281816113c001528181611790015281816117d40152611af001526000818161036a0152818161075a01528181610bff01528181610d7b01528181610e4e0152818161107001528181611177015281816115f90152818161183101528181611ac301528181611b7201528181611f7a0152612302015261308e6000f3fe608060405234801561001057600080fd5b506004361061028a5760003560e01c80637b4cab3d1161015c578063beb84a85116100ce578063e30c397811610087578063e30c397814610665578063e74b981b14610676578063e86e278f14610689578063ede5e5841461069c578063f2fde38b146106d3578063f818b65b146106e657600080fd5b8063beb84a85146105ea578063c515ee23146105fd578063c879657214610610578063ce7fc4f514610618578063d1d736351461062b578063d21220a71461063e57600080fd5b806395e17d841161012057806395e17d841461056d57806399462d85146105805780639d2c370714610593578063a29c23731461059c578063a3f3d722146105a7578063bbbaffab146105ba57600080fd5b80637b4cab3d146105305780637f2917ce146105435780638129fc1c1461054c5780638d1a2091146105545780638da5cb5b1461055c57600080fd5b80633af2888b116102005780635df45a37116101b95780635df45a37146104d85780636574c01d146104f457806365fa9f371461050e57806371084cda14610517578063715018a61461052057806379ba50971461052857600080fd5b80633af2888b1461041d5780633e09e77714610473578063465ee0dc14610496578063469048401461049e578063595b5447146104b15780635c975abb146104c457600080fd5b80632a87bfe5116102525780632a87bfe5146103b75780632d4b23bd146103ce5780632f05205c146103e1578063338a9cf0146103f957806333cd09af1461040c57806335c7e9251461041557600080fd5b80630dfe16811461028f5780630ef83b86146102d357806316c38b3c1461035057806316f0115b14610365578063204427981461038c575b600080fd5b6102b67f000000000000000000000000000000000000000000000000000000000000000081565b6040516001600160a01b0390911681526020015b60405180910390f35b600454600554600654600754600854600954600a5461030a969594939291906001600160401b03811690600160401b900460ff1688565b604080519889526020890197909752958701949094526060860192909252608085015260a08401526001600160401b031660c0830152151560e0820152610100016102ca565b61036361035e366004612ba0565b6106ef565b005b6102b67f000000000000000000000000000000000000000000000000000000000000000081565b60035461039f906001600160401b031681565b6040516001600160401b0390911681526020016102ca565b6103c0600c5481565b6040519081526020016102ca565b6103636103dc366004612bd3565b61074f565b6103e96108cb565b60405190151581526020016102ca565b610363610407366004612cb2565b6108fa565b6103c0600d5481565b6103c061094c565b61042561095b565b6040516102ca9190600060c082019050825182526020830151602083015260408301516040830152606083015160608301526080830151608083015260a0830151151560a083015292915050565b61047b61099c565b604080519384526020840192909252908201526060016102ca565b6103636109f2565b6012546102b6906001600160a01b031681565b6103636104bf366004612ccd565b610ad1565b6013546103e990600160a01b900460ff1681565b600e54600f545b604080519283526020830191909152016102ca565b60035461039f90600160401b90046001600160401b031681565b6103c060115481565b6103c0600b5481565b610363610af2565b610363610b06565b6013546102b6906001600160a01b031681565b6103c0600e5481565b610363610b85565b6103c0610ba4565b6000546001600160a01b03166102b6565b61036361057b366004612cef565b610bae565b6104df61058e366004612cef565b610ca9565b6103c0600f5481565b600c54600d546104df565b6103636105b5366004612d24565b610e43565b6105cd6105c8366004612d59565b610e8c565b6040805193845260208401929092521515908201526060016102ca565b61047b6105f8366004612d95565b611100565b6103c061060b366004612d59565b61124d565b610363611397565b610363610626366004612dd6565b61146e565b610363610639366004612e0f565b6114b0565b6102b67f000000000000000000000000000000000000000000000000000000000000000081565b6001546001600160a01b03166102b6565b610363610684366004612cb2565b6114ed565b610363610697366004612ccd565b61153e565b6106af6106aa366004612e70565b6115c8565b604080518251151581526020808401519082015291810151908201526060016102ca565b6103636106e1366004612cb2565b61197e565b6103c060105481565b6106f76119ef565b60138054821515600160a01b0260ff60a01b199091161790556040517f0e2fb031ee032dc02d8011dc50b816eb450cf856abd8261680dac74f72165bd29061074490831515815260200190565b60405180910390a150565b336001600160a01b037f000000000000000000000000000000000000000000000000000000000000000016146107985760405163634bc70560e11b815260040160405180910390fd5b82156107d2576107d26001600160a01b037f0000000000000000000000000000000000000000000000000000000000000000163385611a49565b811561080c5761080c6001600160a01b037f0000000000000000000000000000000000000000000000000000000000000000163384611a49565b6013546001600160a01b0316156108c6576000610827611aac565b601354604051602481018390529192506000916001600160a01b039091169060440160408051601f198184030181529181526020820180516001600160e01b0316636768488960e11b1790525161087e9190612f1d565b6000604051808303816000865af19150503d80600081146108bb576040519150601f19603f3d011682016040523d82523d6000602084013e6108c0565b606091505b50505050505b505050565b600a54600090600160401b900460ff166108e55750600090565b600b546108f490600490611c4d565b15905090565b6109026119ef565b601380546001600160a01b0319166001600160a01b0383169081179091556040517ffc9644fe2df71698bac6f06561fa34267f572d47e7f989fbc515f4ef2d157ddb90600090a250565b6000610956611aac565b905090565b610963612b5a565b600a54600160401b900460ff1661098d57604051630bc39a9560e41b815260040160405180910390fd5b600b5461095690600490611c8b565b600a5460009081908190600160401b900460ff166109cd57604051630bc39a9560e41b815260040160405180910390fd5b6109d76004611ce3565b90935091508183116109e957816109eb565b825b9050909192565b6010805460118054600093849055929055908115610a4457601254610a44906001600160a01b037f00000000000000000000000000000000000000000000000000000000000000008116911684611a49565b8015610a8457601254610a84906001600160a01b037f00000000000000000000000000000000000000000000000000000000000000008116911683611a49565b60125460408051848152602081018490526001600160a01b03909216917f9dcc99a1b17b7cd10678003bcc989988b1c3f6c4f23222693a65e677e3af386291015b60405180910390a25050565b610ad96119ef565b6000610ae3611d25565b90506108c66004828585611d74565b610afa6119ef565b610b046000611e64565b565b60015433906001600160a01b03168114610b795760405162461bcd60e51b815260206004820152602960248201527f4f776e61626c6532537465703a2063616c6c6572206973206e6f7420746865206044820152683732bb9037bbb732b960b91b60648201526084015b60405180910390fd5b610b8281611e64565b50565b610b8d6119ef565b6000610b97611d25565b9050610b82600482611e7d565b6000610956611d25565b610bb66119ef565b610bbe611e9c565b6040516301c48a4360e61b815260048101849052602481018390523060448201526001600160a01b03828116606483015260a06084830152600060a48301527f0000000000000000000000000000000000000000000000000000000000000000169063712290c09060c401600060405180830381600087803b158015610c4357600080fd5b505af1158015610c57573d6000803e3d6000fd5b505060408051868152602081018690526001600160a01b03851693507fb195a67e698c5700e4f48f7b7748dda3a206ee2767ef024b61a26d7b17b2d63a92500160405180910390a26108c66001600255565b600080610cb46119ef565b610cbc611e9c565b8415610cf757610cf76001600160a01b037f000000000000000000000000000000000000000000000000000000000000000016843088611ef3565b8315610d3257610d326001600160a01b037f000000000000000000000000000000000000000000000000000000000000000016843087611ef3565b6040516320d20f4f60e11b815260048101869052602481018590526001600160a01b03848116604483015260a06064830152600060a4830181905260c0608484015260c48301527f000000000000000000000000000000000000000000000000000000000000000016906341a41e9e9060e40160408051808303816000875af1158015610dc3573d6000803e3d6000fd5b505050506040513d601f19601f82011682018060405250810190610de79190612f39565b60408051838152602081018390529294509092506001600160a01b038516917fb7cd4486a08dcd2bf7da217a07d1069da69db8ffb3518c7014d6e6d4d973a552910160405180910390a2610e3b6001600255565b935093915050565b336001600160a01b037f000000000000000000000000000000000000000000000000000000000000000016146108c65760405163634bc70560e11b815260040160405180910390fd5b6000806000807f00000000000000000000000000000000000000000000000000000000000000006001600160a01b0316876001600160a01b0316148015610f0457507f00000000000000000000000000000000000000000000000000000000000000006001600160a01b0316866001600160a01b0316145b905060007f00000000000000000000000000000000000000000000000000000000000000006001600160a01b0316886001600160a01b0316148015610f7a57507f00000000000000000000000000000000000000000000000000000000000000006001600160a01b0316876001600160a01b0316145b905081158015610f88575080155b15610f9f57600080600094509450945050506110f7565b600a54600160401b900460ff16610fc257600080600094509450945050506110f7565b600b54610fd190600490611c4d565b15610fe857600080600094509450945050506110f7565b6000610ff2611d25565b9050600061104b8885611025577f0000000000000000000000000000000000000000000000000000000000000000611f31565b7f0000000000000000000000000000000000000000000000000000000000000000611f31565b905061105988838387612052565b6040516370a0823160e01b81526001600160a01b037f0000000000000000000000000000000000000000000000000000000000000000811660048301529299509097506000918b16906370a0823190602401602060405180830381865afa1580156110c8573d6000803e3d6000fd5b505050506040513d601f19601f820116820180604052508101906110ec9190612f5d565b881115955050505050505b93509350939050565b600a5460009081908190600160401b900460ff1661113157604051630bc39a9560e41b815260040160405180910390fd5b600061113d600461211e565b9050670de0b6b3a7640000600c54826111569190612f8c565b6111609190612fa3565b6040516370a0823160e01b81526001600160a01b037f0000000000000000000000000000000000000000000000000000000000000000811660048301529195506000918716906370a0823190602401602060405180830381865afa1580156111cc573d6000803e3d6000fd5b505050506040513d601f19601f820116820180604052508101906111f09190612f5d565b90506000811161120157600061121a565b80600d54886112109190612f8c565b61121a9190612fa3565b93506112268486612fc5565b92506706f05b59d3b20000831115611244576706f05b59d3b2000092505b50509250925092565b6000807f00000000000000000000000000000000000000000000000000000000000000006001600160a01b0316856001600160a01b03161480156112c257507f00000000000000000000000000000000000000000000000000000000000000006001600160a01b0316846001600160a01b0316145b905060007f00000000000000000000000000000000000000000000000000000000000000006001600160a01b0316866001600160a01b031614801561133857507f00000000000000000000000000000000000000000000000000000000000000006001600160a01b0316856001600160a01b0316145b905081158015611346575080155b1561136457604051635975477760e11b815260040160405180910390fd5b600061136e611d25565b9050600061137c8689611f31565b905061138a86838387612052565b5098975050505050505050565b600e8054600f80546000938490559290559081156113e9576012546113e9906001600160a01b037f00000000000000000000000000000000000000000000000000000000000000008116911684611a49565b801561142957601254611429906001600160a01b037f00000000000000000000000000000000000000000000000000000000000000008116911683611a49565b60125460408051848152602081018490526001600160a01b03909216917f2e4fb6077d4acf86e12bb7411fb82b2b3eaa6a49787f4b1e17b423e7ea8411699101610ac5565b6114766119ef565b600380546001600160401b03928316600160401b026fffffffffffffffffffffffffffffffff199091169290931691909117919091179055565b6114b86119ef565b600b8190556040518181527ff2510ae1838122ec0293334ab4736fa75c51a329d30f7232d3155bdbe1181d1090602001610744565b6114f56119ef565b6001600160a01b03811661151c576040516308990bff60e21b815260040160405180910390fd5b601280546001600160a01b0319166001600160a01b0392909216919091179055565b6115466119ef565b670de0b6b3a7640000821180611563575067016345785d8a000081115b156115815760405163445451db60e01b815260040160405180910390fd5b600c829055600d81905560408051838152602081018390527f98c83810812c6f75d3603ee13eb37e6aa08693ef814708691ace965256b660ff910160405180910390a15050565b6115ee604051806060016040528060001515815260200160008152602001600081525090565b336001600160a01b037f000000000000000000000000000000000000000000000000000000000000000016146116375760405163634bc70560e11b815260040160405180910390fd5b601354600160a01b900460ff1615611662576040516331b5bb9360e21b815260040160405180910390fd5b600a54600160401b900460ff1661168c57604051630bc39a9560e41b815260040160405180910390fd5b6000611696611d25565b905060006116a560048361216e565b9050600b5481608001511115611724578051602080830151608080850151600b5460408051968752948601939093529284019290925260608301527f22c0212e1347f03946c2ac71647a7039599efba481520ba15459a1c9c8657b30910160405180910390a1604051635332674b60e01b815260040160405180910390fd5b60208801803590600090611738908b612ba0565b90506000836060015184604001511161175557836060015161175b565b83604001515b905060006117b6848461178e577f00000000000000000000000000000000000000000000000000000000000000006117b0565b7f00000000000000000000000000000000000000000000000000000000000000005b846122c7565b90506000806117c7868985886123da565b915091506000856117f8577f000000000000000000000000000000000000000000000000000000000000000061181a565b7f00000000000000000000000000000000000000000000000000000000000000005b6040516370a0823160e01b81526001600160a01b037f00000000000000000000000000000000000000000000000000000000000000008116600483015291925084918316906370a0823190602401602060405180830381865afa158015611885573d6000803e3d6000fd5b505050506040513d601f19601f820116820180604052508101906118a99190612f5d565b10156118c857604051633ed77fd160e01b815260040160405180910390fd5b6118d487848b8961247a565b60405180606001604052806000151581526020018481526020018881525099508e60600160208101906119079190612cb2565b604080518815158152602081018a9052908101859052606081018b90526080810184905260a081018690526001600160a01b0391909116907f77e260ee96920bdc22e42693086faf03a5f75f928aa2f657eee2c3cf6276a0999060c00160405180910390a250505050505050505095945050505050565b6119866119ef565b600180546001600160a01b0383166001600160a01b031990911681179091556119b76000546001600160a01b031690565b6001600160a01b03167f38d16b8cac22d99fc7c124b9cd0de2d3fa1faef420bfe791d8c362d765e2270060405160405180910390a350565b6000546001600160a01b03163314610b045760405162461bcd60e51b815260206004820181905260248201527f4f776e61626c653a2063616c6c6572206973206e6f7420746865206f776e65726044820152606401610b70565b6040516001600160a01b0383166024820152604481018290526108c690849063a9059cbb60e01b906064015b60408051601f198184030181529190526020810180516001600160e01b03166001600160e01b0319909316929092179091526125e6565b6040516370a0823160e01b81526001600160a01b037f00000000000000000000000000000000000000000000000000000000000000008116600483015260009182917f000000000000000000000000000000000000000000000000000000000000000016906370a0823190602401602060405180830381865afa158015611b37573d6000803e3d6000fd5b505050506040513d601f19601f82011682018060405250810190611b5b9190612f5d565b6040516370a0823160e01b81526001600160a01b037f0000000000000000000000000000000000000000000000000000000000000000811660048301529192506000917f000000000000000000000000000000000000000000000000000000000000000016906370a0823190602401602060405180830381865afa158015611be7573d6000803e3d6000fd5b505050506040513d601f19601f82011682018060405250810190611c0b9190612f5d565b90506000611c17611d25565b9050600081611c2e670de0b6b3a764000085612f8c565b611c389190612fa3565b9050611c448185612fc5565b94505050505090565b6006820154600090600160401b900460ff16611c6b57506001611c85565b6000611c7f846000015485600101546126bb565b83109150505b92915050565b611c93612b5a565b6006830154600160401b900460ff16611cbf5760405163d3e5bda560e01b815260040160405180910390fd5b611cdc836000015484600101548560020154866003015486612711565b9392505050565b60068101546000908190600160401b900460ff16611d145760405163d3e5bda560e01b815260040160405180910390fd5b505060028101546003909101549091565b6003546000908190611d3f906001600160401b031661276e565b90506000611d61600360089054906101000a90046001600160401b031661276e565b9050611d6d82826127bd565b9250505090565b611d876001670de0b6b3a7640000612fd8565b821180611d995750655af3107a400082105b15611db7576040516326e445fb60e01b815260040160405180910390fd5b611dca6001670de0b6b3a7640000612fd8565b811180611ddc5750655af3107a400081105b15611dfa576040516326e445fb60e01b815260040160405180910390fd5b82600003611e1b5760405163088bdee360e41b815260040160405180910390fd5b8284556001840192909255600060028401819055600384015560048301556005820155600601805468ffffffffffffffffff19166001600160401b03421617600160401b179055565b600180546001600160a01b0319169055610b82816127ec565b611e98828267016345785d8a0000662386f26fc10000611d74565b5050565b6002805403611eed5760405162461bcd60e51b815260206004820152601f60248201527f5265656e7472616e637947756172643a207265656e7472616e742063616c6c006044820152606401610b70565b60028055565b6040516001600160a01b0380851660248301528316604482015260648101829052611f2b9085906323b872dd60e01b90608401611a75565b50505050565b600080611f3e600461211e565b90506000670de0b6b3a7640000600c5483611f599190612f8c565b611f639190612fa3565b6040516370a0823160e01b81526001600160a01b037f0000000000000000000000000000000000000000000000000000000000000000811660048301529192506000918616906370a0823190602401602060405180830381865afa158015611fcf573d6000803e3d6000fd5b505050506040513d601f19601f82011682018060405250810190611ff39190612f5d565b9050600080821161200557600061201e565b81600d54886120149190612f8c565b61201e9190612fa3565b905061202a8184612fc5565b94506706f05b59d3b20000851115612048576706f05b59d3b2000094505b5050505092915050565b600080600083156120b157670de0b6b3a76400006120708789612f8c565b61207a9190612fa3565b905061208e85670de0b6b3a7640000612fc5565b6120a0670de0b6b3a764000083612f8c565b6120aa9190612fa3565b92506120fa565b856120c4670de0b6b3a764000089612f8c565b6120ce9190612fa3565b9050670de0b6b3a76400006120e38682612fd8565b6120ed9083612f8c565b6120f79190612fa3565b92505b828111612108576000612112565b6121128382612fd8565b91505094509492505050565b6006810154600090600160401b900460ff1661214d5760405163d3e5bda560e01b815260040160405180910390fd5b8160030154826002015411612166578160030154611c85565b506002015490565b612176612b5a565b6006830154600160401b900460ff166121a25760405163d3e5bda560e01b815260040160405180910390fd5b816000036121c35760405163088bdee360e41b815260040160405180910390fd5b825460009083116121e05783546121db908490612fd8565b6121ec565b83546121ec9084612fd8565b90506000846001015484116122105783856001015461220b9190612fd8565b61221f565b600185015461221f9085612fd8565b9050612234856000015485876004015461283c565b85556001850154600586015461224c9190869061283c565b856001018190555061226785600201548387600401546128ae565b856002018190555061228285600301548287600501546128ae565b6003860181905560068601805467ffffffffffffffff1916426001600160401b03161790558554600187015460028801546122be936000612711565b95945050505050565b600080670de0b6b3a7640000600c54846122e19190612f8c565b6122eb9190612fa3565b6040516370a0823160e01b81526001600160a01b037f0000000000000000000000000000000000000000000000000000000000000000811660048301529192506000918616906370a0823190602401602060405180830381865afa158015612357573d6000803e3d6000fd5b505050506040513d601f19601f8201168201806040525081019061237b9190612f5d565b9050600080821161238d5760006123a6565b81600d548861239c9190612f8c565b6123a69190612fa3565b90506123b28184612fc5565b93506706f05b59d3b200008411156123d0576706f05b59d3b2000093505b5050509392505050565b600080821561242857670de0b6b3a76400006123f68582612fc5565b6124009087612f8c565b61240a9190612fa3565b9050806124178688612f8c565b6124219190612fa3565b9150612471565b670de0b6b3a764000061243b8582612fd8565b6124459087612f8c565b61244f9190612fa3565b905080612464670de0b6b3a764000088612f8c565b61246e9190612fa3565b91505b94509492505050565b600081156124a657670de0b6b3a76400006124958487612f8c565b61249f9190612fa3565b90506124c6565b826124b9670de0b6b3a764000087612f8c565b6124c39190612fa3565b90505b60008482116124d65760006124e0565b6124e08583612fd8565b905082156125055780600f60008282546124fa9190612fc5565b9091555061251d9050565b80600e60008282546125179190612fc5565b90915550505b6013546001600160a01b0316156125de576000612538611aac565b60135460405160248101859052604481018390529192506000916001600160a01b039091169060640160408051601f198184030181529181526020820180516001600160e01b03166348c07f5b60e11b179052516125969190612f1d565b6000604051808303816000865af19150503d80600081146125d3576040519150601f19603f3d011682016040523d82523d6000602084013e6125d8565b606091505b50505050505b505050505050565b600061263b826040518060400160405280602081526020017f5361666545524332303a206c6f772d6c6576656c2063616c6c206661696c6564815250856001600160a01b03166129329092919063ffffffff16565b905080516000148061265c57508080602001905181019061265c9190612feb565b6108c65760405162461bcd60e51b815260206004820152602a60248201527f5361666545524332303a204552433230206f7065726174696f6e20646964206e6044820152691bdd081cdd58d8d9595960b21b6064820152608401610b70565b6000816000036126ce5750612710611c85565b60008284116126e6576126e18484612fd8565b6126f0565b6126f08385612fd8565b9050826126ff61271083612f8c565b6127099190612fa3565b949350505050565b612719612b5a565b600061272587876126bb565b90506040518060c0016040528088815260200187815260200186815260200185815260200182815260200160008511801561275f57508483115b15159052979650505050505050565b60008061277a83612941565b9050806001600160401b03166000036127a55760405162079e5b60e11b815260040160405180910390fd5b611cdc6402540be4006001600160401b038316612f8c565b6000816000036127cf57506000611c85565b816127e2670de0b6b3a764000085612f8c565b611cdc9190612fa3565b600080546001600160a01b038381166001600160a01b0319831681178455604051919092169283917f8be0079c531659141344cd1fd0a4f28419497f9722a3daafe3b4186f6b6457e09190a35050565b600083831061287d57670de0b6b3a76400006128588585612fd8565b6128629084612f8c565b61286c9190612fa3565b6128769085612fc5565b9050611cdc565b670de0b6b3a76400006128908486612fd8565b61289a9084612f8c565b6128a49190612fa3565b6128769085612fd8565b600080670de0b6b3a76400006128c48580612f8c565b6128ce9190612fa3565b90506000670de0b6b3a76400006128e58386612f8c565b6128ef9190612fa3565b90506000670de0b6b3a7640000876129078783612fd8565b6129119190612f8c565b61291b9190612fa3565b90506129278183612fc5565b979650505050505050565b606061270984846000856129f1565b604080516001600160401b038316602082015260009182918291610808910160408051601f198184030181529082905261297a91612f1d565b600060405180830381855afa9150503d80600081146129b5576040519150601f19603f3d011682016040523d82523d6000602084013e6129ba565b606091505b5091509150816129dd57604051634c61a21360e11b815260040160405180910390fd5b808060200190518101906127099190613008565b606082471015612a525760405162461bcd60e51b815260206004820152602660248201527f416464726573733a20696e73756666696369656e742062616c616e636520666f6044820152651c8818d85b1b60d21b6064820152608401610b70565b600080866001600160a01b03168587604051612a6e9190612f1d565b60006040518083038185875af1925050503d8060008114612aab576040519150601f19603f3d011682016040523d82523d6000602084013e612ab0565b606091505b50915091506129278783838760608315612b2b578251600003612b24576001600160a01b0385163b612b245760405162461bcd60e51b815260206004820152601d60248201527f416464726573733a2063616c6c20746f206e6f6e2d636f6e74726163740000006044820152606401610b70565b5081612709565b6127098383815115612b405781518083602001fd5b8060405162461bcd60e51b8152600401610b709190613025565b6040518060c0016040528060008152602001600081526020016000815260200160008152602001600081526020016000151581525090565b8015158114610b8257600080fd5b600060208284031215612bb257600080fd5b8135611cdc81612b92565b634e487b7160e01b600052604160045260246000fd5b600080600060608486031215612be857600080fd5b833592506020840135915060408401356001600160401b0380821115612c0d57600080fd5b818601915086601f830112612c2157600080fd5b813581811115612c3357612c33612bbd565b604051601f8201601f19908116603f01168101908382118183101715612c5b57612c5b612bbd565b81604052828152896020848701011115612c7457600080fd5b8260208601602083013760006020848301015280955050505050509250925092565b80356001600160a01b0381168114612cad57600080fd5b919050565b600060208284031215612cc457600080fd5b611cdc82612c96565b60008060408385031215612ce057600080fd5b50508035926020909101359150565b600080600060608486031215612d0457600080fd5b8335925060208401359150612d1b60408501612c96565b90509250925092565b600080600060608486031215612d3957600080fd5b8335612d4481612b92565b95602085013595506040909401359392505050565b600080600060608486031215612d6e57600080fd5b612d7784612c96565b9250612d8560208501612c96565b9150604084013590509250925092565b60008060408385031215612da857600080fd5b82359150612db860208401612c96565b90509250929050565b6001600160401b0381168114610b8257600080fd5b60008060408385031215612de957600080fd5b8235612df481612dc1565b91506020830135612e0481612dc1565b809150509250929050565b600060208284031215612e2157600080fd5b5035919050565b60008083601f840112612e3a57600080fd5b5081356001600160401b03811115612e5157600080fd5b602083019150836020828501011115612e6957600080fd5b9250929050565b6000806000806000858703610100811215612e8a57600080fd5b60c0811215612e9857600080fd5b5085945060c08601356001600160401b0380821115612eb657600080fd5b612ec289838a01612e28565b909650945060e0880135915080821115612edb57600080fd5b50612ee888828901612e28565b969995985093965092949392505050565b60005b83811015612f14578181015183820152602001612efc565b50506000910152565b60008251612f2f818460208701612ef9565b9190910192915050565b60008060408385031215612f4c57600080fd5b505080516020909101519092909150565b600060208284031215612f6f57600080fd5b5051919050565b634e487b7160e01b600052601160045260246000fd5b8082028115828204841417611c8557611c85612f76565b600082612fc057634e487b7160e01b600052601260045260246000fd5b500490565b80820180821115611c8557611c85612f76565b81810381811115611c8557611c85612f76565b600060208284031215612ffd57600080fd5b8151611cdc81612b92565b60006020828403121561301a57600080fd5b8151611cdc81612dc1565b6020815260008251806020840152613044816040850160208701612ef9565b601f01601f1916919091016040019291505056fea2646970667358221220cb7a3c9bfa9f6e2055d066147ac10f620e0d554ccb79aa9bfc72cadd649f035f64736f6c63430008130033",
  "linkReferences": {},
  "deployedLinkReferences": {}
}